{
	"contract/FundMe.sol": {
		"FundMe": {
			"abi": [
				{
					"inputs": [],
					"stateMutability": "nonpayable",
					"type": "constructor"
				},
				{
					"stateMutability": "payable",
					"type": "fallback"
				},
				{
					"inputs": [],
					"name": "MINIMUM_USD",
					"outputs": [
						{
							"internalType": "uint256",
							"name": "",
							"type": "uint256"
						}
					],
					"stateMutability": "view",
					"type": "function"
				},
				{
					"inputs": [
						{
							"internalType": "address",
							"name": "funder",
							"type": "address"
						}
					],
					"name": "addressToAmountFunded",
					"outputs": [
						{
							"internalType": "uint256",
							"name": "amountFunded",
							"type": "uint256"
						}
					],
					"stateMutability": "view",
					"type": "function"
				},
				{
					"inputs": [],
					"name": "fund",
					"outputs": [],
					"stateMutability": "payable",
					"type": "function"
				},
				{
					"inputs": [
						{
							"internalType": "uint256",
							"name": "",
							"type": "uint256"
						}
					],
					"name": "funders",
					"outputs": [
						{
							"internalType": "address",
							"name": "",
							"type": "address"
						}
					],
					"stateMutability": "view",
					"type": "function"
				},
				{
					"inputs": [],
					"name": "i_owner",
					"outputs": [
						{
							"internalType": "address",
							"name": "",
							"type": "address"
						}
					],
					"stateMutability": "view",
					"type": "function"
				},
				{
					"inputs": [],
					"name": "withdraw",
					"outputs": [],
					"stateMutability": "nonpayable",
					"type": "function"
				},
				{
					"stateMutability": "payable",
					"type": "receive"
				}
			],
			"devdoc": {
				"kind": "dev",
				"methods": {},
				"version": 1
			},
			"evm": {
				"assembly": "    /* \"contract/FundMe.sol\":222:2144  contract FundMe {... */\n  mstore(0x40, 0xa0)\n    /* \"contract/FundMe.sol\":489:539  constructor(){... */\n  callvalue\n  dup1\n  iszero\n  tag_1\n  jumpi\n  0x00\n  dup1\n  revert\ntag_1:\n  pop\n    /* \"contract/FundMe.sol\":522:532  msg.sender */\n  caller\n    /* \"contract/FundMe.sol\":512:532  i_owner = msg.sender */\n  0xffffffffffffffffffffffffffffffffffffffff\n  and\n  0x80\n  dup2\n  0xffffffffffffffffffffffffffffffffffffffff\n  and\n  dup2\n  mstore\n  pop\n  pop\n    /* \"contract/FundMe.sol\":222:2144  contract FundMe {... */\n  mload(0x80)\n  codecopy(0x00, dataOffset(sub_0), dataSize(sub_0))\n  0x00\n  assignImmutable(\"0xcc143a676b82d5e07b2c9d57717b403ab3c58caa273a42cdb95b15980141a86c\")\n  return(0x00, dataSize(sub_0))\nstop\n\nsub_0: assembly {\n        /* \"contract/FundMe.sol\":222:2144  contract FundMe {... */\n      mstore(0x40, 0x80)\n      jumpi(tag_1, lt(calldatasize, 0x04))\n      shr(0xe0, calldataload(0x00))\n      dup1\n      0x3ccfd60b\n      eq\n      tag_3\n      jumpi\n      dup1\n      0x3e47d6f3\n      eq\n      tag_4\n      jumpi\n      dup1\n      0x6b69a592\n      eq\n      tag_5\n      jumpi\n      dup1\n      0xb60d4288\n      eq\n      tag_6\n      jumpi\n      dup1\n      0xdba6335f\n      eq\n      tag_7\n      jumpi\n      dup1\n      0xdc0d3dff\n      eq\n      tag_8\n      jumpi\n      jump(tag_2)\n    tag_1:\n      jumpi(tag_2, calldatasize)\n        /* \"contract/FundMe.sol\":2068:2074  fund() */\n      tag_11\n        /* \"contract/FundMe.sol\":2068:2072  fund */\n      tag_12\n        /* \"contract/FundMe.sol\":2068:2074  fund() */\n      jump\t// in\n    tag_11:\n        /* \"contract/FundMe.sol\":222:2144  contract FundMe {... */\n      stop\n    tag_2:\n        /* \"contract/FundMe.sol\":2127:2133  fund() */\n      tag_15\n        /* \"contract/FundMe.sol\":2127:2131  fund */\n      tag_12\n        /* \"contract/FundMe.sol\":2127:2133  fund() */\n      jump\t// in\n    tag_15:\n        /* \"contract/FundMe.sol\":222:2144  contract FundMe {... */\n      stop\n        /* \"contract/FundMe.sol\":938:1755  function withdraw() public onlyOwner {... */\n    tag_3:\n      callvalue\n      dup1\n      iszero\n      tag_16\n      jumpi\n      0x00\n      dup1\n      revert\n    tag_16:\n      pop\n      tag_17\n      tag_18\n      jump\t// in\n    tag_17:\n      stop\n        /* \"contract/FundMe.sol\":367:443  mapping(address funder => uint256 amountFunded) public addressToAmountFunded */\n    tag_4:\n      callvalue\n      dup1\n      iszero\n      tag_19\n      jumpi\n      0x00\n      dup1\n      revert\n    tag_19:\n      pop\n      tag_20\n      0x04\n      dup1\n      calldatasize\n      sub\n      dup2\n      add\n      swap1\n      tag_21\n      swap2\n      swap1\n      tag_22\n      jump\t// in\n    tag_21:\n      tag_23\n      jump\t// in\n    tag_20:\n      mload(0x40)\n      tag_24\n      swap2\n      swap1\n      tag_25\n      jump\t// in\n    tag_24:\n      mload(0x40)\n      dup1\n      swap2\n      sub\n      swap1\n      return\n        /* \"contract/FundMe.sol\":283:330  uint256 public constant MINIMUM_USD = 50 * 1e18 */\n    tag_5:\n      callvalue\n      dup1\n      iszero\n      tag_26\n      jumpi\n      0x00\n      dup1\n      revert\n    tag_26:\n      pop\n      tag_27\n      tag_28\n      jump\t// in\n    tag_27:\n      mload(0x40)\n      tag_29\n      swap2\n      swap1\n      tag_25\n      jump\t// in\n    tag_29:\n      mload(0x40)\n      dup1\n      swap2\n      sub\n      swap1\n      return\n        /* \"contract/FundMe.sol\":545:932  function fund() public payable {... */\n    tag_6:\n      tag_30\n      tag_12\n      jump\t// in\n    tag_30:\n      stop\n        /* \"contract/FundMe.sol\":450:482  address public immutable i_owner */\n    tag_7:\n      callvalue\n      dup1\n      iszero\n      tag_31\n      jumpi\n      0x00\n      dup1\n      revert\n    tag_31:\n      pop\n      tag_32\n      tag_33\n      jump\t// in\n    tag_32:\n      mload(0x40)\n      tag_34\n      swap2\n      swap1\n      tag_35\n      jump\t// in\n    tag_34:\n      mload(0x40)\n      dup1\n      swap2\n      sub\n      swap1\n      return\n        /* \"contract/FundMe.sol\":337:361  address[] public funders */\n    tag_8:\n      callvalue\n      dup1\n      iszero\n      tag_36\n      jumpi\n      0x00\n      dup1\n      revert\n    tag_36:\n      pop\n      tag_37\n      0x04\n      dup1\n      calldatasize\n      sub\n      dup2\n      add\n      swap1\n      tag_38\n      swap2\n      swap1\n      tag_39\n      jump\t// in\n    tag_38:\n      tag_40\n      jump\t// in\n    tag_37:\n      mload(0x40)\n      tag_41\n      swap2\n      swap1\n      tag_35\n      jump\t// in\n    tag_41:\n      mload(0x40)\n      dup1\n      swap2\n      sub\n      swap1\n      return\n        /* \"contract/FundMe.sol\":545:932  function fund() public payable {... */\n    tag_12:\n        /* \"contract/FundMe.sol\":321:330  50 * 1e18 */\n      0x02b5e3af16b1880000\n        /* \"contract/FundMe.sol\":594:623  msg.value.getConversionRate() */\n      tag_43\n        /* \"contract/FundMe.sol\":594:603  msg.value */\n      callvalue\n        /* \"contract/FundMe.sol\":594:621  msg.value.getConversionRate */\n      tag_44\n        /* \"contract/FundMe.sol\":594:623  msg.value.getConversionRate() */\n      jump\t// in\n    tag_43:\n        /* \"contract/FundMe.sol\":594:638  msg.value.getConversionRate() >= MINIMUM_USD */\n      lt\n      iszero\n        /* \"contract/FundMe.sol\":586:670  require(msg.value.getConversionRate() >= MINIMUM_USD, \"You did not send enough ETH\") */\n      tag_45\n      jumpi\n      mload(0x40)\n      0x08c379a000000000000000000000000000000000000000000000000000000000\n      dup2\n      mstore\n      0x04\n      add\n      tag_46\n      swap1\n      tag_47\n      jump\t// in\n    tag_46:\n      mload(0x40)\n      dup1\n      swap2\n      sub\n      swap1\n      revert\n    tag_45:\n        /* \"contract/FundMe.sol\":719:726  funders */\n      0x00\n        /* \"contract/FundMe.sol\":732:742  msg.sender */\n      caller\n        /* \"contract/FundMe.sol\":719:743  funders.push(msg.sender) */\n      swap1\n      dup1\n      0x01\n      dup2\n      sload\n      add\n      dup1\n      dup3\n      sstore\n      dup1\n      swap2\n      pop\n      pop\n      0x01\n      swap1\n      sub\n      swap1\n      0x00\n      mstore\n      keccak256(0x00, 0x20)\n      add\n      0x00\n      swap1\n      swap2\n      swap1\n      swap2\n      swap1\n      swap2\n      0x0100\n      exp\n      dup2\n      sload\n      dup2\n      0xffffffffffffffffffffffffffffffffffffffff\n      mul\n      not\n      and\n      swap1\n      dup4\n      0xffffffffffffffffffffffffffffffffffffffff\n      and\n      mul\n      or\n      swap1\n      sstore\n      pop\n        /* \"contract/FundMe.sol\":825:834  msg.value */\n      callvalue\n        /* \"contract/FundMe.sol\":789:810  addressToAmountFunded */\n      0x01\n        /* \"contract/FundMe.sol\":789:822  addressToAmountFunded[msg.sender] */\n      0x00\n        /* \"contract/FundMe.sol\":811:821  msg.sender */\n      caller\n        /* \"contract/FundMe.sol\":789:822  addressToAmountFunded[msg.sender] */\n      0xffffffffffffffffffffffffffffffffffffffff\n      and\n      0xffffffffffffffffffffffffffffffffffffffff\n      and\n      dup2\n      mstore\n      0x20\n      add\n      swap1\n      dup2\n      mstore\n      0x20\n      add\n      0x00\n      keccak256\n      sload\n        /* \"contract/FundMe.sol\":789:834  addressToAmountFunded[msg.sender] + msg.value */\n      tag_49\n      swap2\n      swap1\n      tag_50\n      jump\t// in\n    tag_49:\n        /* \"contract/FundMe.sol\":753:774  addressToAmountFunded */\n      0x01\n        /* \"contract/FundMe.sol\":753:786  addressToAmountFunded[msg.sender] */\n      0x00\n        /* \"contract/FundMe.sol\":775:785  msg.sender */\n      caller\n        /* \"contract/FundMe.sol\":753:786  addressToAmountFunded[msg.sender] */\n      0xffffffffffffffffffffffffffffffffffffffff\n      and\n      0xffffffffffffffffffffffffffffffffffffffff\n      and\n      dup2\n      mstore\n      0x20\n      add\n      swap1\n      dup2\n      mstore\n      0x20\n      add\n      0x00\n      keccak256\n        /* \"contract/FundMe.sol\":753:834  addressToAmountFunded[msg.sender] = addressToAmountFunded[msg.sender] + msg.value */\n      dup2\n      swap1\n      sstore\n      pop\n        /* \"contract/FundMe.sol\":545:932  function fund() public payable {... */\n      jump\t// out\n        /* \"contract/FundMe.sol\":938:1755  function withdraw() public onlyOwner {... */\n    tag_18:\n        /* \"contract/FundMe.sol\":1893:1900  i_owner */\n      immutable(\"0xcc143a676b82d5e07b2c9d57717b403ab3c58caa273a42cdb95b15980141a86c\")\n        /* \"contract/FundMe.sol\":1879:1900  msg.sender != i_owner */\n      0xffffffffffffffffffffffffffffffffffffffff\n      and\n        /* \"contract/FundMe.sol\":1879:1889  msg.sender */\n      caller\n        /* \"contract/FundMe.sol\":1879:1900  msg.sender != i_owner */\n      0xffffffffffffffffffffffffffffffffffffffff\n      and\n      eq\n        /* \"contract/FundMe.sol\":1875:1955  if (msg.sender != i_owner) { revert(\"You are not the owner of this contract\"); } */\n      tag_52\n      jumpi\n        /* \"contract/FundMe.sol\":1904:1952  revert(\"You are not the owner of this contract\") */\n      mload(0x40)\n      0x08c379a000000000000000000000000000000000000000000000000000000000\n      dup2\n      mstore\n      0x04\n      add\n      tag_53\n      swap1\n      tag_54\n      jump\t// in\n    tag_53:\n      mload(0x40)\n      dup1\n      swap2\n      sub\n      swap1\n      revert\n        /* \"contract/FundMe.sol\":1875:1955  if (msg.sender != i_owner) { revert(\"You are not the owner of this contract\"); } */\n    tag_52:\n        /* \"contract/FundMe.sol\":1073:1092  uint256 funderIndex */\n      0x00\n        /* \"contract/FundMe.sol\":1069:1251  for(uint256 funderIndex = 0; funderIndex < funders.length; funderIndex++){... */\n    tag_56:\n        /* \"contract/FundMe.sol\":1112:1119  funders */\n      0x00\n        /* \"contract/FundMe.sol\":1112:1126  funders.length */\n      dup1\n      sload\n      swap1\n      pop\n        /* \"contract/FundMe.sol\":1098:1109  funderIndex */\n      dup2\n        /* \"contract/FundMe.sol\":1098:1126  funderIndex < funders.length */\n      lt\n        /* \"contract/FundMe.sol\":1069:1251  for(uint256 funderIndex = 0; funderIndex < funders.length; funderIndex++){... */\n      iszero\n      tag_57\n      jumpi\n        /* \"contract/FundMe.sol\":1156:1170  address funder */\n      0x00\n        /* \"contract/FundMe.sol\":1173:1180  funders */\n      dup1\n        /* \"contract/FundMe.sol\":1181:1192  funderIndex */\n      dup3\n        /* \"contract/FundMe.sol\":1173:1193  funders[funderIndex] */\n      dup2\n      sload\n      dup2\n      lt\n      tag_59\n      jumpi\n      tag_60\n      tag_61\n      jump\t// in\n    tag_60:\n    tag_59:\n      swap1\n      0x00\n      mstore\n      keccak256(0x00, 0x20)\n      add\n      0x00\n      swap1\n      sload\n      swap1\n      0x0100\n      exp\n      swap1\n      div\n      0xffffffffffffffffffffffffffffffffffffffff\n      and\n        /* \"contract/FundMe.sol\":1156:1193  address funder = funders[funderIndex] */\n      swap1\n      pop\n        /* \"contract/FundMe.sol\":1239:1240  0 */\n      0x00\n        /* \"contract/FundMe.sol\":1207:1228  addressToAmountFunded */\n      0x01\n        /* \"contract/FundMe.sol\":1207:1236  addressToAmountFunded[funder] */\n      0x00\n        /* \"contract/FundMe.sol\":1229:1235  funder */\n      dup4\n        /* \"contract/FundMe.sol\":1207:1236  addressToAmountFunded[funder] */\n      0xffffffffffffffffffffffffffffffffffffffff\n      and\n      0xffffffffffffffffffffffffffffffffffffffff\n      and\n      dup2\n      mstore\n      0x20\n      add\n      swap1\n      dup2\n      mstore\n      0x20\n      add\n      0x00\n      keccak256\n        /* \"contract/FundMe.sol\":1207:1240  addressToAmountFunded[funder] = 0 */\n      dup2\n      swap1\n      sstore\n      pop\n        /* \"contract/FundMe.sol\":1142:1251  {... */\n      pop\n        /* \"contract/FundMe.sol\":1128:1141  funderIndex++ */\n      dup1\n      dup1\n      tag_63\n      swap1\n      tag_64\n      jump\t// in\n    tag_63:\n      swap2\n      pop\n      pop\n        /* \"contract/FundMe.sol\":1069:1251  for(uint256 funderIndex = 0; funderIndex < funders.length; funderIndex++){... */\n      jump(tag_56)\n    tag_57:\n      pop\n        /* \"contract/FundMe.sol\":1311:1312  0 */\n      0x00\n        /* \"contract/FundMe.sol\":1297:1313  new address[](0) */\n      0xffffffffffffffff\n      dup2\n      gt\n      iszero\n      tag_65\n      jumpi\n      tag_66\n      tag_67\n      jump\t// in\n    tag_66:\n    tag_65:\n      mload(0x40)\n      swap1\n      dup1\n      dup3\n      mstore\n      dup1\n      0x20\n      mul\n      0x20\n      add\n      dup3\n      add\n      0x40\n      mstore\n      dup1\n      iszero\n      tag_68\n      jumpi\n      dup2\n      0x20\n      add\n      0x20\n      dup3\n      mul\n      dup1\n      calldatasize\n      dup4\n      calldatacopy\n      dup1\n      dup3\n      add\n      swap2\n      pop\n      pop\n      swap1\n      pop\n    tag_68:\n      pop\n        /* \"contract/FundMe.sol\":1287:1294  funders */\n      0x00\n        /* \"contract/FundMe.sol\":1287:1313  funders = new address[](0) */\n      swap1\n      dup1\n      mload\n      swap1\n      0x20\n      add\n      swap1\n      tag_69\n      swap3\n      swap2\n      swap1\n      tag_70\n      jump\t// in\n    tag_69:\n      pop\n        /* \"contract/FundMe.sol\":1623:1639  bool callSuccess */\n      0x00\n        /* \"contract/FundMe.sol\":1653:1663  msg.sender */\n      caller\n        /* \"contract/FundMe.sol\":1645:1669  payable(msg.sender).call */\n      0xffffffffffffffffffffffffffffffffffffffff\n      and\n        /* \"contract/FundMe.sol\":1677:1698  address(this).balance */\n      selfbalance\n        /* \"contract/FundMe.sol\":1645:1703  payable(msg.sender).call{value: address(this).balance}(\"\") */\n      mload(0x40)\n      tag_71\n      swap1\n      tag_72\n      jump\t// in\n    tag_71:\n      0x00\n      mload(0x40)\n      dup1\n      dup4\n      sub\n      dup2\n      dup6\n      dup8\n      gas\n      call\n      swap3\n      pop\n      pop\n      pop\n      returndatasize\n      dup1\n      0x00\n      dup2\n      eq\n      tag_75\n      jumpi\n      mload(0x40)\n      swap2\n      pop\n      and(add(returndatasize, 0x3f), not(0x1f))\n      dup3\n      add\n      0x40\n      mstore\n      returndatasize\n      dup3\n      mstore\n      returndatasize\n      0x00\n      0x20\n      dup5\n      add\n      returndatacopy\n      jump(tag_74)\n    tag_75:\n      0x60\n      swap2\n      pop\n    tag_74:\n      pop\n        /* \"contract/FundMe.sol\":1622:1703  (bool callSuccess, ) = payable(msg.sender).call{value: address(this).balance}(\"\") */\n      pop\n      swap1\n      pop\n        /* \"contract/FundMe.sol\":1721:1732  callSuccess */\n      dup1\n        /* \"contract/FundMe.sol\":1713:1748  require(callSuccess, \"Call failed\") */\n      tag_76\n      jumpi\n      mload(0x40)\n      0x08c379a000000000000000000000000000000000000000000000000000000000\n      dup2\n      mstore\n      0x04\n      add\n      tag_77\n      swap1\n      tag_78\n      jump\t// in\n    tag_77:\n      mload(0x40)\n      dup1\n      swap2\n      sub\n      swap1\n      revert\n    tag_76:\n        /* \"contract/FundMe.sol\":975:1755  {... */\n      pop\n        /* \"contract/FundMe.sol\":938:1755  function withdraw() public onlyOwner {... */\n      jump\t// out\n        /* \"contract/FundMe.sol\":367:443  mapping(address funder => uint256 amountFunded) public addressToAmountFunded */\n    tag_23:\n      mstore(0x20, 0x01)\n      dup1\n      0x00\n      mstore\n      keccak256(0x00, 0x40)\n      0x00\n      swap2\n      pop\n      swap1\n      pop\n      sload\n      dup2\n      jump\t// out\n        /* \"contract/FundMe.sol\":283:330  uint256 public constant MINIMUM_USD = 50 * 1e18 */\n    tag_28:\n        /* \"contract/FundMe.sol\":321:330  50 * 1e18 */\n      0x02b5e3af16b1880000\n        /* \"contract/FundMe.sol\":283:330  uint256 public constant MINIMUM_USD = 50 * 1e18 */\n      dup2\n      jump\t// out\n        /* \"contract/FundMe.sol\":450:482  address public immutable i_owner */\n    tag_33:\n      immutable(\"0xcc143a676b82d5e07b2c9d57717b403ab3c58caa273a42cdb95b15980141a86c\")\n      dup2\n      jump\t// out\n        /* \"contract/FundMe.sol\":337:361  address[] public funders */\n    tag_40:\n      0x00\n      dup2\n      dup2\n      sload\n      dup2\n      lt\n      tag_79\n      jumpi\n      0x00\n      dup1\n      revert\n    tag_79:\n      swap1\n      0x00\n      mstore\n      keccak256(0x00, 0x20)\n      add\n      0x00\n      swap2\n      pop\n      sload\n      swap1\n      0x0100\n      exp\n      swap1\n      div\n      0xffffffffffffffffffffffffffffffffffffffff\n      and\n      dup2\n      jump\t// out\n        /* \"library/PriceConverter.sol\":617:980  function getConversionRate(uint256 ethAmount) internal view returns(uint256){... */\n    tag_44:\n        /* \"library/PriceConverter.sol\":685:692  uint256 */\n      0x00\n        /* \"library/PriceConverter.sol\":756:772  uint256 ethPrice */\n      dup1\n        /* \"library/PriceConverter.sol\":775:785  getPrice() */\n      tag_82\n        /* \"library/PriceConverter.sol\":775:783  getPrice */\n      tag_83\n        /* \"library/PriceConverter.sol\":775:785  getPrice() */\n      jump\t// in\n    tag_82:\n        /* \"library/PriceConverter.sol\":756:785  uint256 ethPrice = getPrice() */\n      swap1\n      pop\n        /* \"library/PriceConverter.sol\":888:910  uint256 ethAmountInUsd */\n      0x00\n        /* \"library/PriceConverter.sol\":938:942  1e18 */\n      0x0de0b6b3a7640000\n        /* \"library/PriceConverter.sol\":925:934  ethAmount */\n      dup5\n        /* \"library/PriceConverter.sol\":914:922  ethPrice */\n      dup4\n        /* \"library/PriceConverter.sol\":914:934  ethPrice * ethAmount */\n      tag_84\n      swap2\n      swap1\n      tag_85\n      jump\t// in\n    tag_84:\n        /* \"library/PriceConverter.sol\":913:942  (ethPrice * ethAmount) / 1e18 */\n      tag_86\n      swap2\n      swap1\n      tag_87\n      jump\t// in\n    tag_86:\n        /* \"library/PriceConverter.sol\":888:942  uint256 ethAmountInUsd = (ethPrice * ethAmount) / 1e18 */\n      swap1\n      pop\n        /* \"library/PriceConverter.sol\":959:973  ethAmountInUsd */\n      dup1\n        /* \"library/PriceConverter.sol\":952:973  return ethAmountInUsd */\n      swap3\n      pop\n      pop\n      pop\n        /* \"library/PriceConverter.sol\":617:980  function getConversionRate(uint256 ethAmount) internal view returns(uint256){... */\n      swap2\n      swap1\n      pop\n      jump\t// out\n        /* \"library/PriceConverter.sol\":204:611  function getPrice() internal view returns(uint256) {... */\n    tag_83:\n        /* \"library/PriceConverter.sol\":246:253  uint256 */\n      0x00\n        /* \"library/PriceConverter.sol\":342:373  AggregatorV3Interface priceFeed */\n      dup1\n        /* \"library/PriceConverter.sol\":398:440  0x694AA1769357215DE4FAC081bf1f309aDC325306 */\n      0x694aa1769357215de4fac081bf1f309adc325306\n        /* \"library/PriceConverter.sol\":342:441  AggregatorV3Interface priceFeed = AggregatorV3Interface(0x694AA1769357215DE4FAC081bf1f309aDC325306) */\n      swap1\n      pop\n        /* \"library/PriceConverter.sol\":453:465  int256 price */\n      0x00\n        /* \"library/PriceConverter.sol\":472:481  priceFeed */\n      dup2\n        /* \"library/PriceConverter.sol\":472:497  priceFeed.latestRoundData */\n      0xffffffffffffffffffffffffffffffffffffffff\n      and\n      0xfeaf968c\n        /* \"library/PriceConverter.sol\":472:499  priceFeed.latestRoundData() */\n      mload(0x40)\n      dup2\n      0xffffffff\n      and\n      0xe0\n      shl\n      dup2\n      mstore\n      0x04\n      add\n      0xa0\n      mload(0x40)\n      dup1\n      dup4\n      sub\n      dup2\n      dup7\n      gas\n      staticcall\n      iszero\n      dup1\n      iszero\n      tag_90\n      jumpi\n      returndatasize\n      0x00\n      dup1\n      returndatacopy\n      revert(0x00, returndatasize)\n    tag_90:\n      pop\n      pop\n      pop\n      pop\n      mload(0x40)\n      returndatasize\n      not(0x1f)\n      0x1f\n      dup3\n      add\n      and\n      dup3\n      add\n      dup1\n      0x40\n      mstore\n      pop\n      dup2\n      add\n      swap1\n      tag_91\n      swap2\n      swap1\n      tag_92\n      jump\t// in\n    tag_91:\n        /* \"library/PriceConverter.sol\":451:499  (,int256 price,,,) = priceFeed.latestRoundData() */\n      pop\n      pop\n      pop\n      swap2\n      pop\n      pop\n        /* \"library/PriceConverter.sol\":598:602  1e10 */\n      0x02540be400\n        /* \"library/PriceConverter.sol\":590:595  price */\n      dup2\n        /* \"library/PriceConverter.sol\":590:602  price * 1e10 */\n      tag_93\n      swap2\n      swap1\n      tag_94\n      jump\t// in\n    tag_93:\n        /* \"library/PriceConverter.sol\":574:603  return uint256 (price * 1e10) */\n      swap3\n      pop\n      pop\n      pop\n        /* \"library/PriceConverter.sol\":204:611  function getPrice() internal view returns(uint256) {... */\n      swap1\n      jump\t// out\n    tag_70:\n      dup3\n      dup1\n      sload\n      dup3\n      dup3\n      sstore\n      swap1\n      0x00\n      mstore\n      keccak256(0x00, 0x20)\n      swap1\n      dup2\n      add\n      swap3\n      dup3\n      iszero\n      tag_95\n      jumpi\n      swap2\n      0x20\n      mul\n      dup3\n      add\n    tag_96:\n      dup3\n      dup2\n      gt\n      iszero\n      tag_97\n      jumpi\n      dup3\n      mload\n      dup3\n      exp(0x0100, 0x00)\n      dup2\n      sload\n      dup2\n      0xffffffffffffffffffffffffffffffffffffffff\n      mul\n      not\n      and\n      swap1\n      dup4\n      0xffffffffffffffffffffffffffffffffffffffff\n      and\n      mul\n      or\n      swap1\n      sstore\n      pop\n      swap2\n      0x20\n      add\n      swap2\n      swap1\n      0x01\n      add\n      swap1\n      jump(tag_96)\n    tag_97:\n    tag_95:\n      pop\n      swap1\n      pop\n      tag_98\n      swap2\n      swap1\n      tag_99\n      jump\t// in\n    tag_98:\n      pop\n      swap1\n      jump\t// out\n    tag_99:\n    tag_100:\n      dup1\n      dup3\n      gt\n      iszero\n      tag_101\n      jumpi\n      0x00\n      dup2\n      0x00\n      swap1\n      sstore\n      pop\n      0x01\n      add\n      jump(tag_100)\n    tag_101:\n      pop\n      swap1\n      jump\t// out\n        /* \"#utility.yul\":88:205   */\n    tag_103:\n        /* \"#utility.yul\":197:198   */\n      0x00\n        /* \"#utility.yul\":194:195   */\n      dup1\n        /* \"#utility.yul\":187:199   */\n      revert\n        /* \"#utility.yul\":334:460   */\n    tag_105:\n        /* \"#utility.yul\":371:378   */\n      0x00\n        /* \"#utility.yul\":411:453   */\n      0xffffffffffffffffffffffffffffffffffffffff\n        /* \"#utility.yul\":404:409   */\n      dup3\n        /* \"#utility.yul\":400:454   */\n      and\n        /* \"#utility.yul\":389:454   */\n      swap1\n      pop\n        /* \"#utility.yul\":334:460   */\n      swap2\n      swap1\n      pop\n      jump\t// out\n        /* \"#utility.yul\":466:562   */\n    tag_106:\n        /* \"#utility.yul\":503:510   */\n      0x00\n        /* \"#utility.yul\":532:556   */\n      tag_139\n        /* \"#utility.yul\":550:555   */\n      dup3\n        /* \"#utility.yul\":532:556   */\n      tag_105\n      jump\t// in\n    tag_139:\n        /* \"#utility.yul\":521:556   */\n      swap1\n      pop\n        /* \"#utility.yul\":466:562   */\n      swap2\n      swap1\n      pop\n      jump\t// out\n        /* \"#utility.yul\":568:690   */\n    tag_107:\n        /* \"#utility.yul\":641:665   */\n      tag_141\n        /* \"#utility.yul\":659:664   */\n      dup2\n        /* \"#utility.yul\":641:665   */\n      tag_106\n      jump\t// in\n    tag_141:\n        /* \"#utility.yul\":634:639   */\n      dup2\n        /* \"#utility.yul\":631:666   */\n      eq\n        /* \"#utility.yul\":621:684   */\n      tag_142\n      jumpi\n        /* \"#utility.yul\":680:681   */\n      0x00\n        /* \"#utility.yul\":677:678   */\n      dup1\n        /* \"#utility.yul\":670:682   */\n      revert\n        /* \"#utility.yul\":621:684   */\n    tag_142:\n        /* \"#utility.yul\":568:690   */\n      pop\n      jump\t// out\n        /* \"#utility.yul\":696:835   */\n    tag_108:\n        /* \"#utility.yul\":742:747   */\n      0x00\n        /* \"#utility.yul\":780:786   */\n      dup2\n        /* \"#utility.yul\":767:787   */\n      calldataload\n        /* \"#utility.yul\":758:787   */\n      swap1\n      pop\n        /* \"#utility.yul\":796:829   */\n      tag_144\n        /* \"#utility.yul\":823:828   */\n      dup2\n        /* \"#utility.yul\":796:829   */\n      tag_107\n      jump\t// in\n    tag_144:\n        /* \"#utility.yul\":696:835   */\n      swap3\n      swap2\n      pop\n      pop\n      jump\t// out\n        /* \"#utility.yul\":841:1170   */\n    tag_22:\n        /* \"#utility.yul\":900:906   */\n      0x00\n        /* \"#utility.yul\":949:951   */\n      0x20\n        /* \"#utility.yul\":937:946   */\n      dup3\n        /* \"#utility.yul\":928:935   */\n      dup5\n        /* \"#utility.yul\":924:947   */\n      sub\n        /* \"#utility.yul\":920:952   */\n      slt\n        /* \"#utility.yul\":917:1036   */\n      iszero\n      tag_146\n      jumpi\n        /* \"#utility.yul\":955:1034   */\n      tag_147\n      tag_103\n      jump\t// in\n    tag_147:\n        /* \"#utility.yul\":917:1036   */\n    tag_146:\n        /* \"#utility.yul\":1075:1076   */\n      0x00\n        /* \"#utility.yul\":1100:1153   */\n      tag_148\n        /* \"#utility.yul\":1145:1152   */\n      dup5\n        /* \"#utility.yul\":1136:1142   */\n      dup3\n        /* \"#utility.yul\":1125:1134   */\n      dup6\n        /* \"#utility.yul\":1121:1143   */\n      add\n        /* \"#utility.yul\":1100:1153   */\n      tag_108\n      jump\t// in\n    tag_148:\n        /* \"#utility.yul\":1090:1153   */\n      swap2\n      pop\n        /* \"#utility.yul\":1046:1163   */\n      pop\n        /* \"#utility.yul\":841:1170   */\n      swap3\n      swap2\n      pop\n      pop\n      jump\t// out\n        /* \"#utility.yul\":1176:1253   */\n    tag_109:\n        /* \"#utility.yul\":1213:1220   */\n      0x00\n        /* \"#utility.yul\":1242:1247   */\n      dup2\n        /* \"#utility.yul\":1231:1247   */\n      swap1\n      pop\n        /* \"#utility.yul\":1176:1253   */\n      swap2\n      swap1\n      pop\n      jump\t// out\n        /* \"#utility.yul\":1259:1377   */\n    tag_110:\n        /* \"#utility.yul\":1346:1370   */\n      tag_151\n        /* \"#utility.yul\":1364:1369   */\n      dup2\n        /* \"#utility.yul\":1346:1370   */\n      tag_109\n      jump\t// in\n    tag_151:\n        /* \"#utility.yul\":1341:1344   */\n      dup3\n        /* \"#utility.yul\":1334:1371   */\n      mstore\n        /* \"#utility.yul\":1259:1377   */\n      pop\n      pop\n      jump\t// out\n        /* \"#utility.yul\":1383:1605   */\n    tag_25:\n        /* \"#utility.yul\":1476:1480   */\n      0x00\n        /* \"#utility.yul\":1514:1516   */\n      0x20\n        /* \"#utility.yul\":1503:1512   */\n      dup3\n        /* \"#utility.yul\":1499:1517   */\n      add\n        /* \"#utility.yul\":1491:1517   */\n      swap1\n      pop\n        /* \"#utility.yul\":1527:1598   */\n      tag_153\n        /* \"#utility.yul\":1595:1596   */\n      0x00\n        /* \"#utility.yul\":1584:1593   */\n      dup4\n        /* \"#utility.yul\":1580:1597   */\n      add\n        /* \"#utility.yul\":1571:1577   */\n      dup5\n        /* \"#utility.yul\":1527:1598   */\n      tag_110\n      jump\t// in\n    tag_153:\n        /* \"#utility.yul\":1383:1605   */\n      swap3\n      swap2\n      pop\n      pop\n      jump\t// out\n        /* \"#utility.yul\":1611:1729   */\n    tag_111:\n        /* \"#utility.yul\":1698:1722   */\n      tag_155\n        /* \"#utility.yul\":1716:1721   */\n      dup2\n        /* \"#utility.yul\":1698:1722   */\n      tag_106\n      jump\t// in\n    tag_155:\n        /* \"#utility.yul\":1693:1696   */\n      dup3\n        /* \"#utility.yul\":1686:1723   */\n      mstore\n        /* \"#utility.yul\":1611:1729   */\n      pop\n      pop\n      jump\t// out\n        /* \"#utility.yul\":1735:1957   */\n    tag_35:\n        /* \"#utility.yul\":1828:1832   */\n      0x00\n        /* \"#utility.yul\":1866:1868   */\n      0x20\n        /* \"#utility.yul\":1855:1864   */\n      dup3\n        /* \"#utility.yul\":1851:1869   */\n      add\n        /* \"#utility.yul\":1843:1869   */\n      swap1\n      pop\n        /* \"#utility.yul\":1879:1950   */\n      tag_157\n        /* \"#utility.yul\":1947:1948   */\n      0x00\n        /* \"#utility.yul\":1936:1945   */\n      dup4\n        /* \"#utility.yul\":1932:1949   */\n      add\n        /* \"#utility.yul\":1923:1929   */\n      dup5\n        /* \"#utility.yul\":1879:1950   */\n      tag_111\n      jump\t// in\n    tag_157:\n        /* \"#utility.yul\":1735:1957   */\n      swap3\n      swap2\n      pop\n      pop\n      jump\t// out\n        /* \"#utility.yul\":1963:2085   */\n    tag_112:\n        /* \"#utility.yul\":2036:2060   */\n      tag_159\n        /* \"#utility.yul\":2054:2059   */\n      dup2\n        /* \"#utility.yul\":2036:2060   */\n      tag_109\n      jump\t// in\n    tag_159:\n        /* \"#utility.yul\":2029:2034   */\n      dup2\n        /* \"#utility.yul\":2026:2061   */\n      eq\n        /* \"#utility.yul\":2016:2079   */\n      tag_160\n      jumpi\n        /* \"#utility.yul\":2075:2076   */\n      0x00\n        /* \"#utility.yul\":2072:2073   */\n      dup1\n        /* \"#utility.yul\":2065:2077   */\n      revert\n        /* \"#utility.yul\":2016:2079   */\n    tag_160:\n        /* \"#utility.yul\":1963:2085   */\n      pop\n      jump\t// out\n        /* \"#utility.yul\":2091:2230   */\n    tag_113:\n        /* \"#utility.yul\":2137:2142   */\n      0x00\n        /* \"#utility.yul\":2175:2181   */\n      dup2\n        /* \"#utility.yul\":2162:2182   */\n      calldataload\n        /* \"#utility.yul\":2153:2182   */\n      swap1\n      pop\n        /* \"#utility.yul\":2191:2224   */\n      tag_162\n        /* \"#utility.yul\":2218:2223   */\n      dup2\n        /* \"#utility.yul\":2191:2224   */\n      tag_112\n      jump\t// in\n    tag_162:\n        /* \"#utility.yul\":2091:2230   */\n      swap3\n      swap2\n      pop\n      pop\n      jump\t// out\n        /* \"#utility.yul\":2236:2565   */\n    tag_39:\n        /* \"#utility.yul\":2295:2301   */\n      0x00\n        /* \"#utility.yul\":2344:2346   */\n      0x20\n        /* \"#utility.yul\":2332:2341   */\n      dup3\n        /* \"#utility.yul\":2323:2330   */\n      dup5\n        /* \"#utility.yul\":2319:2342   */\n      sub\n        /* \"#utility.yul\":2315:2347   */\n      slt\n        /* \"#utility.yul\":2312:2431   */\n      iszero\n      tag_164\n      jumpi\n        /* \"#utility.yul\":2350:2429   */\n      tag_165\n      tag_103\n      jump\t// in\n    tag_165:\n        /* \"#utility.yul\":2312:2431   */\n    tag_164:\n        /* \"#utility.yul\":2470:2471   */\n      0x00\n        /* \"#utility.yul\":2495:2548   */\n      tag_166\n        /* \"#utility.yul\":2540:2547   */\n      dup5\n        /* \"#utility.yul\":2531:2537   */\n      dup3\n        /* \"#utility.yul\":2520:2529   */\n      dup6\n        /* \"#utility.yul\":2516:2538   */\n      add\n        /* \"#utility.yul\":2495:2548   */\n      tag_113\n      jump\t// in\n    tag_166:\n        /* \"#utility.yul\":2485:2548   */\n      swap2\n      pop\n        /* \"#utility.yul\":2441:2558   */\n      pop\n        /* \"#utility.yul\":2236:2565   */\n      swap3\n      swap2\n      pop\n      pop\n      jump\t// out\n        /* \"#utility.yul\":2571:2740   */\n    tag_114:\n        /* \"#utility.yul\":2655:2666   */\n      0x00\n        /* \"#utility.yul\":2689:2695   */\n      dup3\n        /* \"#utility.yul\":2684:2687   */\n      dup3\n        /* \"#utility.yul\":2677:2696   */\n      mstore\n        /* \"#utility.yul\":2729:2733   */\n      0x20\n        /* \"#utility.yul\":2724:2727   */\n      dup3\n        /* \"#utility.yul\":2720:2734   */\n      add\n        /* \"#utility.yul\":2705:2734   */\n      swap1\n      pop\n        /* \"#utility.yul\":2571:2740   */\n      swap3\n      swap2\n      pop\n      pop\n      jump\t// out\n        /* \"#utility.yul\":2746:2923   */\n    tag_115:\n        /* \"#utility.yul\":2886:2915   */\n      0x596f7520646964206e6f742073656e6420656e6f756768204554480000000000\n        /* \"#utility.yul\":2882:2883   */\n      0x00\n        /* \"#utility.yul\":2874:2880   */\n      dup3\n        /* \"#utility.yul\":2870:2884   */\n      add\n        /* \"#utility.yul\":2863:2916   */\n      mstore\n        /* \"#utility.yul\":2746:2923   */\n      pop\n      jump\t// out\n        /* \"#utility.yul\":2929:3295   */\n    tag_116:\n        /* \"#utility.yul\":3071:3074   */\n      0x00\n        /* \"#utility.yul\":3092:3159   */\n      tag_170\n        /* \"#utility.yul\":3156:3158   */\n      0x1b\n        /* \"#utility.yul\":3151:3154   */\n      dup4\n        /* \"#utility.yul\":3092:3159   */\n      tag_114\n      jump\t// in\n    tag_170:\n        /* \"#utility.yul\":3085:3159   */\n      swap2\n      pop\n        /* \"#utility.yul\":3168:3261   */\n      tag_171\n        /* \"#utility.yul\":3257:3260   */\n      dup3\n        /* \"#utility.yul\":3168:3261   */\n      tag_115\n      jump\t// in\n    tag_171:\n        /* \"#utility.yul\":3286:3288   */\n      0x20\n        /* \"#utility.yul\":3281:3284   */\n      dup3\n        /* \"#utility.yul\":3277:3289   */\n      add\n        /* \"#utility.yul\":3270:3289   */\n      swap1\n      pop\n        /* \"#utility.yul\":2929:3295   */\n      swap2\n      swap1\n      pop\n      jump\t// out\n        /* \"#utility.yul\":3301:3720   */\n    tag_47:\n        /* \"#utility.yul\":3467:3471   */\n      0x00\n        /* \"#utility.yul\":3505:3507   */\n      0x20\n        /* \"#utility.yul\":3494:3503   */\n      dup3\n        /* \"#utility.yul\":3490:3508   */\n      add\n        /* \"#utility.yul\":3482:3508   */\n      swap1\n      pop\n        /* \"#utility.yul\":3554:3563   */\n      dup2\n        /* \"#utility.yul\":3548:3552   */\n      dup2\n        /* \"#utility.yul\":3544:3564   */\n      sub\n        /* \"#utility.yul\":3540:3541   */\n      0x00\n        /* \"#utility.yul\":3529:3538   */\n      dup4\n        /* \"#utility.yul\":3525:3542   */\n      add\n        /* \"#utility.yul\":3518:3565   */\n      mstore\n        /* \"#utility.yul\":3582:3713   */\n      tag_173\n        /* \"#utility.yul\":3708:3712   */\n      dup2\n        /* \"#utility.yul\":3582:3713   */\n      tag_116\n      jump\t// in\n    tag_173:\n        /* \"#utility.yul\":3574:3713   */\n      swap1\n      pop\n        /* \"#utility.yul\":3301:3720   */\n      swap2\n      swap1\n      pop\n      jump\t// out\n        /* \"#utility.yul\":3726:3906   */\n    tag_117:\n        /* \"#utility.yul\":3774:3851   */\n      0x4e487b7100000000000000000000000000000000000000000000000000000000\n        /* \"#utility.yul\":3771:3772   */\n      0x00\n        /* \"#utility.yul\":3764:3852   */\n      mstore\n        /* \"#utility.yul\":3871:3875   */\n      0x11\n        /* \"#utility.yul\":3868:3869   */\n      0x04\n        /* \"#utility.yul\":3861:3876   */\n      mstore\n        /* \"#utility.yul\":3895:3899   */\n      0x24\n        /* \"#utility.yul\":3892:3893   */\n      0x00\n        /* \"#utility.yul\":3885:3900   */\n      revert\n        /* \"#utility.yul\":3912:4103   */\n    tag_50:\n        /* \"#utility.yul\":3952:3955   */\n      0x00\n        /* \"#utility.yul\":3971:3991   */\n      tag_176\n        /* \"#utility.yul\":3989:3990   */\n      dup3\n        /* \"#utility.yul\":3971:3991   */\n      tag_109\n      jump\t// in\n    tag_176:\n        /* \"#utility.yul\":3966:3991   */\n      swap2\n      pop\n        /* \"#utility.yul\":4005:4025   */\n      tag_177\n        /* \"#utility.yul\":4023:4024   */\n      dup4\n        /* \"#utility.yul\":4005:4025   */\n      tag_109\n      jump\t// in\n    tag_177:\n        /* \"#utility.yul\":4000:4025   */\n      swap3\n      pop\n        /* \"#utility.yul\":4048:4049   */\n      dup3\n        /* \"#utility.yul\":4045:4046   */\n      dup3\n        /* \"#utility.yul\":4041:4050   */\n      add\n        /* \"#utility.yul\":4034:4050   */\n      swap1\n      pop\n        /* \"#utility.yul\":4069:4072   */\n      dup1\n        /* \"#utility.yul\":4066:4067   */\n      dup3\n        /* \"#utility.yul\":4063:4073   */\n      gt\n        /* \"#utility.yul\":4060:4096   */\n      iszero\n      tag_178\n      jumpi\n        /* \"#utility.yul\":4076:4094   */\n      tag_179\n      tag_117\n      jump\t// in\n    tag_179:\n        /* \"#utility.yul\":4060:4096   */\n    tag_178:\n        /* \"#utility.yul\":3912:4103   */\n      swap3\n      swap2\n      pop\n      pop\n      jump\t// out\n        /* \"#utility.yul\":4109:4334   */\n    tag_118:\n        /* \"#utility.yul\":4249:4283   */\n      0x596f7520617265206e6f7420746865206f776e6572206f66207468697320636f\n        /* \"#utility.yul\":4245:4246   */\n      0x00\n        /* \"#utility.yul\":4237:4243   */\n      dup3\n        /* \"#utility.yul\":4233:4247   */\n      add\n        /* \"#utility.yul\":4226:4284   */\n      mstore\n        /* \"#utility.yul\":4318:4326   */\n      0x6e74726163740000000000000000000000000000000000000000000000000000\n        /* \"#utility.yul\":4313:4315   */\n      0x20\n        /* \"#utility.yul\":4305:4311   */\n      dup3\n        /* \"#utility.yul\":4301:4316   */\n      add\n        /* \"#utility.yul\":4294:4327   */\n      mstore\n        /* \"#utility.yul\":4109:4334   */\n      pop\n      jump\t// out\n        /* \"#utility.yul\":4340:4706   */\n    tag_119:\n        /* \"#utility.yul\":4482:4485   */\n      0x00\n        /* \"#utility.yul\":4503:4570   */\n      tag_182\n        /* \"#utility.yul\":4567:4569   */\n      0x26\n        /* \"#utility.yul\":4562:4565   */\n      dup4\n        /* \"#utility.yul\":4503:4570   */\n      tag_114\n      jump\t// in\n    tag_182:\n        /* \"#utility.yul\":4496:4570   */\n      swap2\n      pop\n        /* \"#utility.yul\":4579:4672   */\n      tag_183\n        /* \"#utility.yul\":4668:4671   */\n      dup3\n        /* \"#utility.yul\":4579:4672   */\n      tag_118\n      jump\t// in\n    tag_183:\n        /* \"#utility.yul\":4697:4699   */\n      0x40\n        /* \"#utility.yul\":4692:4695   */\n      dup3\n        /* \"#utility.yul\":4688:4700   */\n      add\n        /* \"#utility.yul\":4681:4700   */\n      swap1\n      pop\n        /* \"#utility.yul\":4340:4706   */\n      swap2\n      swap1\n      pop\n      jump\t// out\n        /* \"#utility.yul\":4712:5131   */\n    tag_54:\n        /* \"#utility.yul\":4878:4882   */\n      0x00\n        /* \"#utility.yul\":4916:4918   */\n      0x20\n        /* \"#utility.yul\":4905:4914   */\n      dup3\n        /* \"#utility.yul\":4901:4919   */\n      add\n        /* \"#utility.yul\":4893:4919   */\n      swap1\n      pop\n        /* \"#utility.yul\":4965:4974   */\n      dup2\n        /* \"#utility.yul\":4959:4963   */\n      dup2\n        /* \"#utility.yul\":4955:4975   */\n      sub\n        /* \"#utility.yul\":4951:4952   */\n      0x00\n        /* \"#utility.yul\":4940:4949   */\n      dup4\n        /* \"#utility.yul\":4936:4953   */\n      add\n        /* \"#utility.yul\":4929:4976   */\n      mstore\n        /* \"#utility.yul\":4993:5124   */\n      tag_185\n        /* \"#utility.yul\":5119:5123   */\n      dup2\n        /* \"#utility.yul\":4993:5124   */\n      tag_119\n      jump\t// in\n    tag_185:\n        /* \"#utility.yul\":4985:5124   */\n      swap1\n      pop\n        /* \"#utility.yul\":4712:5131   */\n      swap2\n      swap1\n      pop\n      jump\t// out\n        /* \"#utility.yul\":5137:5317   */\n    tag_61:\n        /* \"#utility.yul\":5185:5262   */\n      0x4e487b7100000000000000000000000000000000000000000000000000000000\n        /* \"#utility.yul\":5182:5183   */\n      0x00\n        /* \"#utility.yul\":5175:5263   */\n      mstore\n        /* \"#utility.yul\":5282:5286   */\n      0x32\n        /* \"#utility.yul\":5279:5280   */\n      0x04\n        /* \"#utility.yul\":5272:5287   */\n      mstore\n        /* \"#utility.yul\":5306:5310   */\n      0x24\n        /* \"#utility.yul\":5303:5304   */\n      0x00\n        /* \"#utility.yul\":5296:5311   */\n      revert\n        /* \"#utility.yul\":5323:5556   */\n    tag_64:\n        /* \"#utility.yul\":5362:5365   */\n      0x00\n        /* \"#utility.yul\":5385:5409   */\n      tag_188\n        /* \"#utility.yul\":5403:5408   */\n      dup3\n        /* \"#utility.yul\":5385:5409   */\n      tag_109\n      jump\t// in\n    tag_188:\n        /* \"#utility.yul\":5376:5409   */\n      swap2\n      pop\n        /* \"#utility.yul\":5431:5497   */\n      0xffffffffffffffffffffffffffffffffffffffffffffffffffffffffffffffff\n        /* \"#utility.yul\":5424:5429   */\n      dup3\n        /* \"#utility.yul\":5421:5498   */\n      sub\n        /* \"#utility.yul\":5418:5521   */\n      tag_189\n      jumpi\n        /* \"#utility.yul\":5501:5519   */\n      tag_190\n      tag_117\n      jump\t// in\n    tag_190:\n        /* \"#utility.yul\":5418:5521   */\n    tag_189:\n        /* \"#utility.yul\":5548:5549   */\n      0x01\n        /* \"#utility.yul\":5541:5546   */\n      dup3\n        /* \"#utility.yul\":5537:5550   */\n      add\n        /* \"#utility.yul\":5530:5550   */\n      swap1\n      pop\n        /* \"#utility.yul\":5323:5556   */\n      swap2\n      swap1\n      pop\n      jump\t// out\n        /* \"#utility.yul\":5562:5742   */\n    tag_67:\n        /* \"#utility.yul\":5610:5687   */\n      0x4e487b7100000000000000000000000000000000000000000000000000000000\n        /* \"#utility.yul\":5607:5608   */\n      0x00\n        /* \"#utility.yul\":5600:5688   */\n      mstore\n        /* \"#utility.yul\":5707:5711   */\n      0x41\n        /* \"#utility.yul\":5704:5705   */\n      0x04\n        /* \"#utility.yul\":5697:5712   */\n      mstore\n        /* \"#utility.yul\":5731:5735   */\n      0x24\n        /* \"#utility.yul\":5728:5729   */\n      0x00\n        /* \"#utility.yul\":5721:5736   */\n      revert\n        /* \"#utility.yul\":5748:5895   */\n    tag_120:\n        /* \"#utility.yul\":5849:5860   */\n      0x00\n        /* \"#utility.yul\":5886:5889   */\n      dup2\n        /* \"#utility.yul\":5871:5889   */\n      swap1\n      pop\n        /* \"#utility.yul\":5748:5895   */\n      swap3\n      swap2\n      pop\n      pop\n      jump\t// out\n        /* \"#utility.yul\":5901:6015   */\n    tag_121:\n      pop\n      jump\t// out\n        /* \"#utility.yul\":6021:6419   */\n    tag_122:\n        /* \"#utility.yul\":6180:6183   */\n      0x00\n        /* \"#utility.yul\":6201:6284   */\n      tag_195\n        /* \"#utility.yul\":6282:6283   */\n      0x00\n        /* \"#utility.yul\":6277:6280   */\n      dup4\n        /* \"#utility.yul\":6201:6284   */\n      tag_120\n      jump\t// in\n    tag_195:\n        /* \"#utility.yul\":6194:6284   */\n      swap2\n      pop\n        /* \"#utility.yul\":6293:6386   */\n      tag_196\n        /* \"#utility.yul\":6382:6385   */\n      dup3\n        /* \"#utility.yul\":6293:6386   */\n      tag_121\n      jump\t// in\n    tag_196:\n        /* \"#utility.yul\":6411:6412   */\n      0x00\n        /* \"#utility.yul\":6406:6409   */\n      dup3\n        /* \"#utility.yul\":6402:6413   */\n      add\n        /* \"#utility.yul\":6395:6413   */\n      swap1\n      pop\n        /* \"#utility.yul\":6021:6419   */\n      swap2\n      swap1\n      pop\n      jump\t// out\n        /* \"#utility.yul\":6425:6804   */\n    tag_72:\n        /* \"#utility.yul\":6609:6612   */\n      0x00\n        /* \"#utility.yul\":6631:6778   */\n      tag_198\n        /* \"#utility.yul\":6774:6777   */\n      dup3\n        /* \"#utility.yul\":6631:6778   */\n      tag_122\n      jump\t// in\n    tag_198:\n        /* \"#utility.yul\":6624:6778   */\n      swap2\n      pop\n        /* \"#utility.yul\":6795:6798   */\n      dup2\n        /* \"#utility.yul\":6788:6798   */\n      swap1\n      pop\n        /* \"#utility.yul\":6425:6804   */\n      swap2\n      swap1\n      pop\n      jump\t// out\n        /* \"#utility.yul\":6810:6971   */\n    tag_123:\n        /* \"#utility.yul\":6950:6963   */\n      0x43616c6c206661696c6564000000000000000000000000000000000000000000\n        /* \"#utility.yul\":6946:6947   */\n      0x00\n        /* \"#utility.yul\":6938:6944   */\n      dup3\n        /* \"#utility.yul\":6934:6948   */\n      add\n        /* \"#utility.yul\":6927:6964   */\n      mstore\n        /* \"#utility.yul\":6810:6971   */\n      pop\n      jump\t// out\n        /* \"#utility.yul\":6977:7343   */\n    tag_124:\n        /* \"#utility.yul\":7119:7122   */\n      0x00\n        /* \"#utility.yul\":7140:7207   */\n      tag_201\n        /* \"#utility.yul\":7204:7206   */\n      0x0b\n        /* \"#utility.yul\":7199:7202   */\n      dup4\n        /* \"#utility.yul\":7140:7207   */\n      tag_114\n      jump\t// in\n    tag_201:\n        /* \"#utility.yul\":7133:7207   */\n      swap2\n      pop\n        /* \"#utility.yul\":7216:7309   */\n      tag_202\n        /* \"#utility.yul\":7305:7308   */\n      dup3\n        /* \"#utility.yul\":7216:7309   */\n      tag_123\n      jump\t// in\n    tag_202:\n        /* \"#utility.yul\":7334:7336   */\n      0x20\n        /* \"#utility.yul\":7329:7332   */\n      dup3\n        /* \"#utility.yul\":7325:7337   */\n      add\n        /* \"#utility.yul\":7318:7337   */\n      swap1\n      pop\n        /* \"#utility.yul\":6977:7343   */\n      swap2\n      swap1\n      pop\n      jump\t// out\n        /* \"#utility.yul\":7349:7768   */\n    tag_78:\n        /* \"#utility.yul\":7515:7519   */\n      0x00\n        /* \"#utility.yul\":7553:7555   */\n      0x20\n        /* \"#utility.yul\":7542:7551   */\n      dup3\n        /* \"#utility.yul\":7538:7556   */\n      add\n        /* \"#utility.yul\":7530:7556   */\n      swap1\n      pop\n        /* \"#utility.yul\":7602:7611   */\n      dup2\n        /* \"#utility.yul\":7596:7600   */\n      dup2\n        /* \"#utility.yul\":7592:7612   */\n      sub\n        /* \"#utility.yul\":7588:7589   */\n      0x00\n        /* \"#utility.yul\":7577:7586   */\n      dup4\n        /* \"#utility.yul\":7573:7590   */\n      add\n        /* \"#utility.yul\":7566:7613   */\n      mstore\n        /* \"#utility.yul\":7630:7761   */\n      tag_204\n        /* \"#utility.yul\":7756:7760   */\n      dup2\n        /* \"#utility.yul\":7630:7761   */\n      tag_124\n      jump\t// in\n    tag_204:\n        /* \"#utility.yul\":7622:7761   */\n      swap1\n      pop\n        /* \"#utility.yul\":7349:7768   */\n      swap2\n      swap1\n      pop\n      jump\t// out\n        /* \"#utility.yul\":7774:8184   */\n    tag_85:\n        /* \"#utility.yul\":7814:7821   */\n      0x00\n        /* \"#utility.yul\":7837:7857   */\n      tag_206\n        /* \"#utility.yul\":7855:7856   */\n      dup3\n        /* \"#utility.yul\":7837:7857   */\n      tag_109\n      jump\t// in\n    tag_206:\n        /* \"#utility.yul\":7832:7857   */\n      swap2\n      pop\n        /* \"#utility.yul\":7871:7891   */\n      tag_207\n        /* \"#utility.yul\":7889:7890   */\n      dup4\n        /* \"#utility.yul\":7871:7891   */\n      tag_109\n      jump\t// in\n    tag_207:\n        /* \"#utility.yul\":7866:7891   */\n      swap3\n      pop\n        /* \"#utility.yul\":7926:7927   */\n      dup3\n        /* \"#utility.yul\":7923:7924   */\n      dup3\n        /* \"#utility.yul\":7919:7928   */\n      mul\n        /* \"#utility.yul\":7948:7978   */\n      tag_208\n        /* \"#utility.yul\":7966:7977   */\n      dup2\n        /* \"#utility.yul\":7948:7978   */\n      tag_109\n      jump\t// in\n    tag_208:\n        /* \"#utility.yul\":7937:7978   */\n      swap2\n      pop\n        /* \"#utility.yul\":8127:8128   */\n      dup3\n        /* \"#utility.yul\":8118:8125   */\n      dup3\n        /* \"#utility.yul\":8114:8129   */\n      div\n        /* \"#utility.yul\":8111:8112   */\n      dup5\n        /* \"#utility.yul\":8108:8130   */\n      eq\n        /* \"#utility.yul\":8088:8089   */\n      dup4\n        /* \"#utility.yul\":8081:8090   */\n      iszero\n        /* \"#utility.yul\":8061:8144   */\n      or\n        /* \"#utility.yul\":8038:8177   */\n      tag_209\n      jumpi\n        /* \"#utility.yul\":8157:8175   */\n      tag_210\n      tag_117\n      jump\t// in\n    tag_210:\n        /* \"#utility.yul\":8038:8177   */\n    tag_209:\n        /* \"#utility.yul\":7822:8184   */\n      pop\n        /* \"#utility.yul\":7774:8184   */\n      swap3\n      swap2\n      pop\n      pop\n      jump\t// out\n        /* \"#utility.yul\":8190:8370   */\n    tag_125:\n        /* \"#utility.yul\":8238:8315   */\n      0x4e487b7100000000000000000000000000000000000000000000000000000000\n        /* \"#utility.yul\":8235:8236   */\n      0x00\n        /* \"#utility.yul\":8228:8316   */\n      mstore\n        /* \"#utility.yul\":8335:8339   */\n      0x12\n        /* \"#utility.yul\":8332:8333   */\n      0x04\n        /* \"#utility.yul\":8325:8340   */\n      mstore\n        /* \"#utility.yul\":8359:8363   */\n      0x24\n        /* \"#utility.yul\":8356:8357   */\n      0x00\n        /* \"#utility.yul\":8349:8364   */\n      revert\n        /* \"#utility.yul\":8376:8561   */\n    tag_87:\n        /* \"#utility.yul\":8416:8417   */\n      0x00\n        /* \"#utility.yul\":8433:8453   */\n      tag_213\n        /* \"#utility.yul\":8451:8452   */\n      dup3\n        /* \"#utility.yul\":8433:8453   */\n      tag_109\n      jump\t// in\n    tag_213:\n        /* \"#utility.yul\":8428:8453   */\n      swap2\n      pop\n        /* \"#utility.yul\":8467:8487   */\n      tag_214\n        /* \"#utility.yul\":8485:8486   */\n      dup4\n        /* \"#utility.yul\":8467:8487   */\n      tag_109\n      jump\t// in\n    tag_214:\n        /* \"#utility.yul\":8462:8487   */\n      swap3\n      pop\n        /* \"#utility.yul\":8506:8507   */\n      dup3\n        /* \"#utility.yul\":8496:8531   */\n      tag_215\n      jumpi\n        /* \"#utility.yul\":8511:8529   */\n      tag_216\n      tag_125\n      jump\t// in\n    tag_216:\n        /* \"#utility.yul\":8496:8531   */\n    tag_215:\n        /* \"#utility.yul\":8553:8554   */\n      dup3\n        /* \"#utility.yul\":8550:8551   */\n      dup3\n        /* \"#utility.yul\":8546:8555   */\n      div\n        /* \"#utility.yul\":8541:8555   */\n      swap1\n      pop\n        /* \"#utility.yul\":8376:8561   */\n      swap3\n      swap2\n      pop\n      pop\n      jump\t// out\n        /* \"#utility.yul\":8567:8672   */\n    tag_126:\n        /* \"#utility.yul\":8603:8610   */\n      0x00\n        /* \"#utility.yul\":8643:8665   */\n      0xffffffffffffffffffff\n        /* \"#utility.yul\":8636:8641   */\n      dup3\n        /* \"#utility.yul\":8632:8666   */\n      and\n        /* \"#utility.yul\":8621:8666   */\n      swap1\n      pop\n        /* \"#utility.yul\":8567:8672   */\n      swap2\n      swap1\n      pop\n      jump\t// out\n        /* \"#utility.yul\":8678:8798   */\n    tag_127:\n        /* \"#utility.yul\":8750:8773   */\n      tag_219\n        /* \"#utility.yul\":8767:8772   */\n      dup2\n        /* \"#utility.yul\":8750:8773   */\n      tag_126\n      jump\t// in\n    tag_219:\n        /* \"#utility.yul\":8743:8748   */\n      dup2\n        /* \"#utility.yul\":8740:8774   */\n      eq\n        /* \"#utility.yul\":8730:8792   */\n      tag_220\n      jumpi\n        /* \"#utility.yul\":8788:8789   */\n      0x00\n        /* \"#utility.yul\":8785:8786   */\n      dup1\n        /* \"#utility.yul\":8778:8790   */\n      revert\n        /* \"#utility.yul\":8730:8792   */\n    tag_220:\n        /* \"#utility.yul\":8678:8798   */\n      pop\n      jump\t// out\n        /* \"#utility.yul\":8804:8945   */\n    tag_128:\n        /* \"#utility.yul\":8860:8865   */\n      0x00\n        /* \"#utility.yul\":8891:8897   */\n      dup2\n        /* \"#utility.yul\":8885:8898   */\n      mload\n        /* \"#utility.yul\":8876:8898   */\n      swap1\n      pop\n        /* \"#utility.yul\":8907:8939   */\n      tag_222\n        /* \"#utility.yul\":8933:8938   */\n      dup2\n        /* \"#utility.yul\":8907:8939   */\n      tag_127\n      jump\t// in\n    tag_222:\n        /* \"#utility.yul\":8804:8945   */\n      swap3\n      swap2\n      pop\n      pop\n      jump\t// out\n        /* \"#utility.yul\":8951:9027   */\n    tag_129:\n        /* \"#utility.yul\":8987:8994   */\n      0x00\n        /* \"#utility.yul\":9016:9021   */\n      dup2\n        /* \"#utility.yul\":9005:9021   */\n      swap1\n      pop\n        /* \"#utility.yul\":8951:9027   */\n      swap2\n      swap1\n      pop\n      jump\t// out\n        /* \"#utility.yul\":9033:9153   */\n    tag_130:\n        /* \"#utility.yul\":9105:9128   */\n      tag_225\n        /* \"#utility.yul\":9122:9127   */\n      dup2\n        /* \"#utility.yul\":9105:9128   */\n      tag_129\n      jump\t// in\n    tag_225:\n        /* \"#utility.yul\":9098:9103   */\n      dup2\n        /* \"#utility.yul\":9095:9129   */\n      eq\n        /* \"#utility.yul\":9085:9147   */\n      tag_226\n      jumpi\n        /* \"#utility.yul\":9143:9144   */\n      0x00\n        /* \"#utility.yul\":9140:9141   */\n      dup1\n        /* \"#utility.yul\":9133:9145   */\n      revert\n        /* \"#utility.yul\":9085:9147   */\n    tag_226:\n        /* \"#utility.yul\":9033:9153   */\n      pop\n      jump\t// out\n        /* \"#utility.yul\":9159:9300   */\n    tag_131:\n        /* \"#utility.yul\":9215:9220   */\n      0x00\n        /* \"#utility.yul\":9246:9252   */\n      dup2\n        /* \"#utility.yul\":9240:9253   */\n      mload\n        /* \"#utility.yul\":9231:9253   */\n      swap1\n      pop\n        /* \"#utility.yul\":9262:9294   */\n      tag_228\n        /* \"#utility.yul\":9288:9293   */\n      dup2\n        /* \"#utility.yul\":9262:9294   */\n      tag_130\n      jump\t// in\n    tag_228:\n        /* \"#utility.yul\":9159:9300   */\n      swap3\n      swap2\n      pop\n      pop\n      jump\t// out\n        /* \"#utility.yul\":9306:9449   */\n    tag_132:\n        /* \"#utility.yul\":9363:9368   */\n      0x00\n        /* \"#utility.yul\":9394:9400   */\n      dup2\n        /* \"#utility.yul\":9388:9401   */\n      mload\n        /* \"#utility.yul\":9379:9401   */\n      swap1\n      pop\n        /* \"#utility.yul\":9410:9443   */\n      tag_230\n        /* \"#utility.yul\":9437:9442   */\n      dup2\n        /* \"#utility.yul\":9410:9443   */\n      tag_112\n      jump\t// in\n    tag_230:\n        /* \"#utility.yul\":9306:9449   */\n      swap3\n      swap2\n      pop\n      pop\n      jump\t// out\n        /* \"#utility.yul\":9455:10426   */\n    tag_92:\n        /* \"#utility.yul\":9558:9564   */\n      0x00\n        /* \"#utility.yul\":9566:9572   */\n      dup1\n        /* \"#utility.yul\":9574:9580   */\n      0x00\n        /* \"#utility.yul\":9582:9588   */\n      dup1\n        /* \"#utility.yul\":9590:9596   */\n      0x00\n        /* \"#utility.yul\":9639:9642   */\n      0xa0\n        /* \"#utility.yul\":9627:9636   */\n      dup7\n        /* \"#utility.yul\":9618:9625   */\n      dup9\n        /* \"#utility.yul\":9614:9637   */\n      sub\n        /* \"#utility.yul\":9610:9643   */\n      slt\n        /* \"#utility.yul\":9607:9727   */\n      iszero\n      tag_232\n      jumpi\n        /* \"#utility.yul\":9646:9725   */\n      tag_233\n      tag_103\n      jump\t// in\n    tag_233:\n        /* \"#utility.yul\":9607:9727   */\n    tag_232:\n        /* \"#utility.yul\":9766:9767   */\n      0x00\n        /* \"#utility.yul\":9791:9854   */\n      tag_234\n        /* \"#utility.yul\":9846:9853   */\n      dup9\n        /* \"#utility.yul\":9837:9843   */\n      dup3\n        /* \"#utility.yul\":9826:9835   */\n      dup10\n        /* \"#utility.yul\":9822:9844   */\n      add\n        /* \"#utility.yul\":9791:9854   */\n      tag_128\n      jump\t// in\n    tag_234:\n        /* \"#utility.yul\":9781:9854   */\n      swap6\n      pop\n        /* \"#utility.yul\":9737:9864   */\n      pop\n        /* \"#utility.yul\":9903:9905   */\n      0x20\n        /* \"#utility.yul\":9929:9992   */\n      tag_235\n        /* \"#utility.yul\":9984:9991   */\n      dup9\n        /* \"#utility.yul\":9975:9981   */\n      dup3\n        /* \"#utility.yul\":9964:9973   */\n      dup10\n        /* \"#utility.yul\":9960:9982   */\n      add\n        /* \"#utility.yul\":9929:9992   */\n      tag_131\n      jump\t// in\n    tag_235:\n        /* \"#utility.yul\":9919:9992   */\n      swap5\n      pop\n        /* \"#utility.yul\":9874:10002   */\n      pop\n        /* \"#utility.yul\":10041:10043   */\n      0x40\n        /* \"#utility.yul\":10067:10131   */\n      tag_236\n        /* \"#utility.yul\":10123:10130   */\n      dup9\n        /* \"#utility.yul\":10114:10120   */\n      dup3\n        /* \"#utility.yul\":10103:10112   */\n      dup10\n        /* \"#utility.yul\":10099:10121   */\n      add\n        /* \"#utility.yul\":10067:10131   */\n      tag_132\n      jump\t// in\n    tag_236:\n        /* \"#utility.yul\":10057:10131   */\n      swap4\n      pop\n        /* \"#utility.yul\":10012:10141   */\n      pop\n        /* \"#utility.yul\":10180:10182   */\n      0x60\n        /* \"#utility.yul\":10206:10270   */\n      tag_237\n        /* \"#utility.yul\":10262:10269   */\n      dup9\n        /* \"#utility.yul\":10253:10259   */\n      dup3\n        /* \"#utility.yul\":10242:10251   */\n      dup10\n        /* \"#utility.yul\":10238:10260   */\n      add\n        /* \"#utility.yul\":10206:10270   */\n      tag_132\n      jump\t// in\n    tag_237:\n        /* \"#utility.yul\":10196:10270   */\n      swap3\n      pop\n        /* \"#utility.yul\":10151:10280   */\n      pop\n        /* \"#utility.yul\":10319:10322   */\n      0x80\n        /* \"#utility.yul\":10346:10409   */\n      tag_238\n        /* \"#utility.yul\":10401:10408   */\n      dup9\n        /* \"#utility.yul\":10392:10398   */\n      dup3\n        /* \"#utility.yul\":10381:10390   */\n      dup10\n        /* \"#utility.yul\":10377:10399   */\n      add\n        /* \"#utility.yul\":10346:10409   */\n      tag_128\n      jump\t// in\n    tag_238:\n        /* \"#utility.yul\":10336:10409   */\n      swap2\n      pop\n        /* \"#utility.yul\":10290:10419   */\n      pop\n        /* \"#utility.yul\":9455:10426   */\n      swap3\n      swap6\n      pop\n      swap3\n      swap6\n      swap1\n      swap4\n      pop\n      jump\t// out\n        /* \"#utility.yul\":10432:10988   */\n    tag_94:\n        /* \"#utility.yul\":10471:10478   */\n      0x00\n        /* \"#utility.yul\":10494:10513   */\n      tag_240\n        /* \"#utility.yul\":10511:10512   */\n      dup3\n        /* \"#utility.yul\":10494:10513   */\n      tag_129\n      jump\t// in\n    tag_240:\n        /* \"#utility.yul\":10489:10513   */\n      swap2\n      pop\n        /* \"#utility.yul\":10527:10546   */\n      tag_241\n        /* \"#utility.yul\":10544:10545   */\n      dup4\n        /* \"#utility.yul\":10527:10546   */\n      tag_129\n      jump\t// in\n    tag_241:\n        /* \"#utility.yul\":10522:10546   */\n      swap3\n      pop\n        /* \"#utility.yul\":10581:10582   */\n      dup3\n        /* \"#utility.yul\":10578:10579   */\n      dup3\n        /* \"#utility.yul\":10574:10583   */\n      mul\n        /* \"#utility.yul\":10603:10632   */\n      tag_242\n        /* \"#utility.yul\":10620:10631   */\n      dup2\n        /* \"#utility.yul\":10603:10632   */\n      tag_129\n      jump\t// in\n    tag_242:\n        /* \"#utility.yul\":10592:10632   */\n      swap2\n      pop\n        /* \"#utility.yul\":10690:10756   */\n      0x8000000000000000000000000000000000000000000000000000000000000000\n        /* \"#utility.yul\":10687:10688   */\n      dup5\n        /* \"#utility.yul\":10684:10757   */\n      eq\n        /* \"#utility.yul\":10680:10681   */\n      0x00\n        /* \"#utility.yul\":10677:10678   */\n      dup5\n        /* \"#utility.yul\":10673:10682   */\n      slt\n        /* \"#utility.yul\":10669:10758   */\n      and\n        /* \"#utility.yul\":10666:10781   */\n      iszero\n      tag_243\n      jumpi\n        /* \"#utility.yul\":10761:10779   */\n      tag_244\n      tag_117\n      jump\t// in\n    tag_244:\n        /* \"#utility.yul\":10666:10781   */\n    tag_243:\n        /* \"#utility.yul\":10931:10932   */\n      dup3\n        /* \"#utility.yul\":10922:10929   */\n      dup3\n        /* \"#utility.yul\":10917:10933   */\n      sdiv\n        /* \"#utility.yul\":10914:10915   */\n      dup5\n        /* \"#utility.yul\":10911:10934   */\n      eq\n        /* \"#utility.yul\":10891:10892   */\n      dup4\n        /* \"#utility.yul\":10884:10893   */\n      iszero\n        /* \"#utility.yul\":10864:10948   */\n      or\n        /* \"#utility.yul\":10841:10981   */\n      tag_245\n      jumpi\n        /* \"#utility.yul\":10961:10979   */\n      tag_246\n      tag_117\n      jump\t// in\n    tag_246:\n        /* \"#utility.yul\":10841:10981   */\n    tag_245:\n        /* \"#utility.yul\":10479:10988   */\n      pop\n        /* \"#utility.yul\":10432:10988   */\n      swap3\n      swap2\n      pop\n      pop\n      jump\t// out\n\n    auxdata: 0xa264697066735822122066fcb4ff07fab0f6b4f2b052cdbf60c2cbab8ef1ffc523bc319f5b50b16613c264736f6c63430008120033\n}\n",
				"bytecode": {
					"linkReferences": {},
					"object": "60a060405234801561001057600080fd5b503373ffffffffffffffffffffffffffffffffffffffff1660808173ffffffffffffffffffffffffffffffffffffffff1681525050608051610d6e610067600039600081816102ac015261051a0152610d6e6000f3fe6080604052600436106100595760003560e01c80633ccfd60b146100725780633e47d6f3146100895780636b69a592146100c6578063b60d4288146100f1578063dba6335f146100fb578063dc0d3dff1461012657610068565b3661006857610066610163565b005b610070610163565b005b34801561007e57600080fd5b506100876102aa565b005b34801561009557600080fd5b506100b060048036038101906100ab9190610768565b6104f3565b6040516100bd91906107ae565b60405180910390f35b3480156100d257600080fd5b506100db61050b565b6040516100e891906107ae565b60405180910390f35b6100f9610163565b005b34801561010757600080fd5b50610110610518565b60405161011d91906107d8565b60405180910390f35b34801561013257600080fd5b5061014d6004803603810190610148919061081f565b61053c565b60405161015a91906107d8565b60405180910390f35b6802b5e3af16b18800006101763461057b565b10156101b7576040517f08c379a00000000000000000000000000000000000000000000000000000000081526004016101ae906108a9565b60405180910390fd5b6000339080600181540180825580915050600190039060005260206000200160009091909190916101000a81548173ffffffffffffffffffffffffffffffffffffffff021916908373ffffffffffffffffffffffffffffffffffffffff16021790555034600160003373ffffffffffffffffffffffffffffffffffffffff1673ffffffffffffffffffffffffffffffffffffffff1681526020019081526020016000205461026591906108f8565b600160003373ffffffffffffffffffffffffffffffffffffffff1673ffffffffffffffffffffffffffffffffffffffff16815260200190815260200160002081905550565b7f000000000000000000000000000000000000000000000000000000000000000073ffffffffffffffffffffffffffffffffffffffff163373ffffffffffffffffffffffffffffffffffffffff1614610338576040517f08c379a000000000000000000000000000000000000000000000000000000000815260040161032f9061099e565b60405180910390fd5b60005b6000805490508110156103e357600080828154811061035d5761035c6109be565b5b9060005260206000200160009054906101000a900473ffffffffffffffffffffffffffffffffffffffff1690506000600160008373ffffffffffffffffffffffffffffffffffffffff1673ffffffffffffffffffffffffffffffffffffffff168152602001908152602001600020819055505080806103db906109ed565b91505061033b565b50600067ffffffffffffffff8111156103ff576103fe610a35565b5b60405190808252806020026020018201604052801561042d5781602001602082028036833780820191505090505b506000908051906020019061044392919061065e565b5060003373ffffffffffffffffffffffffffffffffffffffff164760405161046a90610a95565b60006040518083038185875af1925050503d80600081146104a7576040519150601f19603f3d011682016040523d82523d6000602084013e6104ac565b606091505b50509050806104f0576040517f08c379a00000000000000000000000000000000000000000000000000000000081526004016104e790610af6565b60405180910390fd5b50565b60016020528060005260406000206000915090505481565b6802b5e3af16b188000081565b7f000000000000000000000000000000000000000000000000000000000000000081565b6000818154811061054c57600080fd5b906000526020600020016000915054906101000a900473ffffffffffffffffffffffffffffffffffffffff1681565b6000806105866105b5565b90506000670de0b6b3a7640000848361059f9190610b16565b6105a99190610b87565b90508092505050919050565b60008073694aa1769357215de4fac081bf1f309adc325306905060008173ffffffffffffffffffffffffffffffffffffffff1663feaf968c6040518163ffffffff1660e01b815260040160a060405180830381865afa15801561061c573d6000803e3d6000fd5b505050506040513d601f19601f820116820180604052508101906106409190610c45565b5050509150506402540be400816106579190610cc0565b9250505090565b8280548282559060005260206000209081019282156106d7579160200282015b828111156106d65782518260006101000a81548173ffffffffffffffffffffffffffffffffffffffff021916908373ffffffffffffffffffffffffffffffffffffffff1602179055509160200191906001019061067e565b5b5090506106e491906106e8565b5090565b5b808211156107015760008160009055506001016106e9565b5090565b600080fd5b600073ffffffffffffffffffffffffffffffffffffffff82169050919050565b60006107358261070a565b9050919050565b6107458161072a565b811461075057600080fd5b50565b6000813590506107628161073c565b92915050565b60006020828403121561077e5761077d610705565b5b600061078c84828501610753565b91505092915050565b6000819050919050565b6107a881610795565b82525050565b60006020820190506107c3600083018461079f565b92915050565b6107d28161072a565b82525050565b60006020820190506107ed60008301846107c9565b92915050565b6107fc81610795565b811461080757600080fd5b50565b600081359050610819816107f3565b92915050565b60006020828403121561083557610834610705565b5b60006108438482850161080a565b91505092915050565b600082825260208201905092915050565b7f596f7520646964206e6f742073656e6420656e6f756768204554480000000000600082015250565b6000610893601b8361084c565b915061089e8261085d565b602082019050919050565b600060208201905081810360008301526108c281610886565b9050919050565b7f4e487b7100000000000000000000000000000000000000000000000000000000600052601160045260246000fd5b600061090382610795565b915061090e83610795565b9250828201905080821115610926576109256108c9565b5b92915050565b7f596f7520617265206e6f7420746865206f776e6572206f66207468697320636f60008201527f6e74726163740000000000000000000000000000000000000000000000000000602082015250565b600061098860268361084c565b91506109938261092c565b604082019050919050565b600060208201905081810360008301526109b78161097b565b9050919050565b7f4e487b7100000000000000000000000000000000000000000000000000000000600052603260045260246000fd5b60006109f882610795565b91507fffffffffffffffffffffffffffffffffffffffffffffffffffffffffffffffff8203610a2a57610a296108c9565b5b600182019050919050565b7f4e487b7100000000000000000000000000000000000000000000000000000000600052604160045260246000fd5b600081905092915050565b50565b6000610a7f600083610a64565b9150610a8a82610a6f565b600082019050919050565b6000610aa082610a72565b9150819050919050565b7f43616c6c206661696c6564000000000000000000000000000000000000000000600082015250565b6000610ae0600b8361084c565b9150610aeb82610aaa565b602082019050919050565b60006020820190508181036000830152610b0f81610ad3565b9050919050565b6000610b2182610795565b9150610b2c83610795565b9250828202610b3a81610795565b91508282048414831517610b5157610b506108c9565b5b5092915050565b7f4e487b7100000000000000000000000000000000000000000000000000000000600052601260045260246000fd5b6000610b9282610795565b9150610b9d83610795565b925082610bad57610bac610b58565b5b828204905092915050565b600069ffffffffffffffffffff82169050919050565b610bd781610bb8565b8114610be257600080fd5b50565b600081519050610bf481610bce565b92915050565b6000819050919050565b610c0d81610bfa565b8114610c1857600080fd5b50565b600081519050610c2a81610c04565b92915050565b600081519050610c3f816107f3565b92915050565b600080600080600060a08688031215610c6157610c60610705565b5b6000610c6f88828901610be5565b9550506020610c8088828901610c1b565b9450506040610c9188828901610c30565b9350506060610ca288828901610c30565b9250506080610cb388828901610be5565b9150509295509295909350565b6000610ccb82610bfa565b9150610cd683610bfa565b9250828202610ce481610bfa565b91507f80000000000000000000000000000000000000000000000000000000000000008414600084121615610d1c57610d1b6108c9565b5b8282058414831517610d3157610d306108c9565b5b509291505056fea264697066735822122066fcb4ff07fab0f6b4f2b052cdbf60c2cbab8ef1ffc523bc319f5b50b16613c264736f6c63430008120033",
					"opcodes": "PUSH1 0xA0 PUSH1 0x40 MSTORE CALLVALUE DUP1 ISZERO PUSH2 0x10 JUMPI PUSH1 0x0 DUP1 REVERT JUMPDEST POP CALLER PUSH20 0xFFFFFFFFFFFFFFFFFFFFFFFFFFFFFFFFFFFFFFFF AND PUSH1 0x80 DUP2 PUSH20 0xFFFFFFFFFFFFFFFFFFFFFFFFFFFFFFFFFFFFFFFF AND DUP2 MSTORE POP POP PUSH1 0x80 MLOAD PUSH2 0xD6E PUSH2 0x67 PUSH1 0x0 CODECOPY PUSH1 0x0 DUP2 DUP2 PUSH2 0x2AC ADD MSTORE PUSH2 0x51A ADD MSTORE PUSH2 0xD6E PUSH1 0x0 RETURN INVALID PUSH1 0x80 PUSH1 0x40 MSTORE PUSH1 0x4 CALLDATASIZE LT PUSH2 0x59 JUMPI PUSH1 0x0 CALLDATALOAD PUSH1 0xE0 SHR DUP1 PUSH4 0x3CCFD60B EQ PUSH2 0x72 JUMPI DUP1 PUSH4 0x3E47D6F3 EQ PUSH2 0x89 JUMPI DUP1 PUSH4 0x6B69A592 EQ PUSH2 0xC6 JUMPI DUP1 PUSH4 0xB60D4288 EQ PUSH2 0xF1 JUMPI DUP1 PUSH4 0xDBA6335F EQ PUSH2 0xFB JUMPI DUP1 PUSH4 0xDC0D3DFF EQ PUSH2 0x126 JUMPI PUSH2 0x68 JUMP JUMPDEST CALLDATASIZE PUSH2 0x68 JUMPI PUSH2 0x66 PUSH2 0x163 JUMP JUMPDEST STOP JUMPDEST PUSH2 0x70 PUSH2 0x163 JUMP JUMPDEST STOP JUMPDEST CALLVALUE DUP1 ISZERO PUSH2 0x7E JUMPI PUSH1 0x0 DUP1 REVERT JUMPDEST POP PUSH2 0x87 PUSH2 0x2AA JUMP JUMPDEST STOP JUMPDEST CALLVALUE DUP1 ISZERO PUSH2 0x95 JUMPI PUSH1 0x0 DUP1 REVERT JUMPDEST POP PUSH2 0xB0 PUSH1 0x4 DUP1 CALLDATASIZE SUB DUP2 ADD SWAP1 PUSH2 0xAB SWAP2 SWAP1 PUSH2 0x768 JUMP JUMPDEST PUSH2 0x4F3 JUMP JUMPDEST PUSH1 0x40 MLOAD PUSH2 0xBD SWAP2 SWAP1 PUSH2 0x7AE JUMP JUMPDEST PUSH1 0x40 MLOAD DUP1 SWAP2 SUB SWAP1 RETURN JUMPDEST CALLVALUE DUP1 ISZERO PUSH2 0xD2 JUMPI PUSH1 0x0 DUP1 REVERT JUMPDEST POP PUSH2 0xDB PUSH2 0x50B JUMP JUMPDEST PUSH1 0x40 MLOAD PUSH2 0xE8 SWAP2 SWAP1 PUSH2 0x7AE JUMP JUMPDEST PUSH1 0x40 MLOAD DUP1 SWAP2 SUB SWAP1 RETURN JUMPDEST PUSH2 0xF9 PUSH2 0x163 JUMP JUMPDEST STOP JUMPDEST CALLVALUE DUP1 ISZERO PUSH2 0x107 JUMPI PUSH1 0x0 DUP1 REVERT JUMPDEST POP PUSH2 0x110 PUSH2 0x518 JUMP JUMPDEST PUSH1 0x40 MLOAD PUSH2 0x11D SWAP2 SWAP1 PUSH2 0x7D8 JUMP JUMPDEST PUSH1 0x40 MLOAD DUP1 SWAP2 SUB SWAP1 RETURN JUMPDEST CALLVALUE DUP1 ISZERO PUSH2 0x132 JUMPI PUSH1 0x0 DUP1 REVERT JUMPDEST POP PUSH2 0x14D PUSH1 0x4 DUP1 CALLDATASIZE SUB DUP2 ADD SWAP1 PUSH2 0x148 SWAP2 SWAP1 PUSH2 0x81F JUMP JUMPDEST PUSH2 0x53C JUMP JUMPDEST PUSH1 0x40 MLOAD PUSH2 0x15A SWAP2 SWAP1 PUSH2 0x7D8 JUMP JUMPDEST PUSH1 0x40 MLOAD DUP1 SWAP2 SUB SWAP1 RETURN JUMPDEST PUSH9 0x2B5E3AF16B1880000 PUSH2 0x176 CALLVALUE PUSH2 0x57B JUMP JUMPDEST LT ISZERO PUSH2 0x1B7 JUMPI PUSH1 0x40 MLOAD PUSH32 0x8C379A000000000000000000000000000000000000000000000000000000000 DUP2 MSTORE PUSH1 0x4 ADD PUSH2 0x1AE SWAP1 PUSH2 0x8A9 JUMP JUMPDEST PUSH1 0x40 MLOAD DUP1 SWAP2 SUB SWAP1 REVERT JUMPDEST PUSH1 0x0 CALLER SWAP1 DUP1 PUSH1 0x1 DUP2 SLOAD ADD DUP1 DUP3 SSTORE DUP1 SWAP2 POP POP PUSH1 0x1 SWAP1 SUB SWAP1 PUSH1 0x0 MSTORE PUSH1 0x20 PUSH1 0x0 KECCAK256 ADD PUSH1 0x0 SWAP1 SWAP2 SWAP1 SWAP2 SWAP1 SWAP2 PUSH2 0x100 EXP DUP2 SLOAD DUP2 PUSH20 0xFFFFFFFFFFFFFFFFFFFFFFFFFFFFFFFFFFFFFFFF MUL NOT AND SWAP1 DUP4 PUSH20 0xFFFFFFFFFFFFFFFFFFFFFFFFFFFFFFFFFFFFFFFF AND MUL OR SWAP1 SSTORE POP CALLVALUE PUSH1 0x1 PUSH1 0x0 CALLER PUSH20 0xFFFFFFFFFFFFFFFFFFFFFFFFFFFFFFFFFFFFFFFF AND PUSH20 0xFFFFFFFFFFFFFFFFFFFFFFFFFFFFFFFFFFFFFFFF AND DUP2 MSTORE PUSH1 0x20 ADD SWAP1 DUP2 MSTORE PUSH1 0x20 ADD PUSH1 0x0 KECCAK256 SLOAD PUSH2 0x265 SWAP2 SWAP1 PUSH2 0x8F8 JUMP JUMPDEST PUSH1 0x1 PUSH1 0x0 CALLER PUSH20 0xFFFFFFFFFFFFFFFFFFFFFFFFFFFFFFFFFFFFFFFF AND PUSH20 0xFFFFFFFFFFFFFFFFFFFFFFFFFFFFFFFFFFFFFFFF AND DUP2 MSTORE PUSH1 0x20 ADD SWAP1 DUP2 MSTORE PUSH1 0x20 ADD PUSH1 0x0 KECCAK256 DUP2 SWAP1 SSTORE POP JUMP JUMPDEST PUSH32 0x0 PUSH20 0xFFFFFFFFFFFFFFFFFFFFFFFFFFFFFFFFFFFFFFFF AND CALLER PUSH20 0xFFFFFFFFFFFFFFFFFFFFFFFFFFFFFFFFFFFFFFFF AND EQ PUSH2 0x338 JUMPI PUSH1 0x40 MLOAD PUSH32 0x8C379A000000000000000000000000000000000000000000000000000000000 DUP2 MSTORE PUSH1 0x4 ADD PUSH2 0x32F SWAP1 PUSH2 0x99E JUMP JUMPDEST PUSH1 0x40 MLOAD DUP1 SWAP2 SUB SWAP1 REVERT JUMPDEST PUSH1 0x0 JUMPDEST PUSH1 0x0 DUP1 SLOAD SWAP1 POP DUP2 LT ISZERO PUSH2 0x3E3 JUMPI PUSH1 0x0 DUP1 DUP3 DUP2 SLOAD DUP2 LT PUSH2 0x35D JUMPI PUSH2 0x35C PUSH2 0x9BE JUMP JUMPDEST JUMPDEST SWAP1 PUSH1 0x0 MSTORE PUSH1 0x20 PUSH1 0x0 KECCAK256 ADD PUSH1 0x0 SWAP1 SLOAD SWAP1 PUSH2 0x100 EXP SWAP1 DIV PUSH20 0xFFFFFFFFFFFFFFFFFFFFFFFFFFFFFFFFFFFFFFFF AND SWAP1 POP PUSH1 0x0 PUSH1 0x1 PUSH1 0x0 DUP4 PUSH20 0xFFFFFFFFFFFFFFFFFFFFFFFFFFFFFFFFFFFFFFFF AND PUSH20 0xFFFFFFFFFFFFFFFFFFFFFFFFFFFFFFFFFFFFFFFF AND DUP2 MSTORE PUSH1 0x20 ADD SWAP1 DUP2 MSTORE PUSH1 0x20 ADD PUSH1 0x0 KECCAK256 DUP2 SWAP1 SSTORE POP POP DUP1 DUP1 PUSH2 0x3DB SWAP1 PUSH2 0x9ED JUMP JUMPDEST SWAP2 POP POP PUSH2 0x33B JUMP JUMPDEST POP PUSH1 0x0 PUSH8 0xFFFFFFFFFFFFFFFF DUP2 GT ISZERO PUSH2 0x3FF JUMPI PUSH2 0x3FE PUSH2 0xA35 JUMP JUMPDEST JUMPDEST PUSH1 0x40 MLOAD SWAP1 DUP1 DUP3 MSTORE DUP1 PUSH1 0x20 MUL PUSH1 0x20 ADD DUP3 ADD PUSH1 0x40 MSTORE DUP1 ISZERO PUSH2 0x42D JUMPI DUP2 PUSH1 0x20 ADD PUSH1 0x20 DUP3 MUL DUP1 CALLDATASIZE DUP4 CALLDATACOPY DUP1 DUP3 ADD SWAP2 POP POP SWAP1 POP JUMPDEST POP PUSH1 0x0 SWAP1 DUP1 MLOAD SWAP1 PUSH1 0x20 ADD SWAP1 PUSH2 0x443 SWAP3 SWAP2 SWAP1 PUSH2 0x65E JUMP JUMPDEST POP PUSH1 0x0 CALLER PUSH20 0xFFFFFFFFFFFFFFFFFFFFFFFFFFFFFFFFFFFFFFFF AND SELFBALANCE PUSH1 0x40 MLOAD PUSH2 0x46A SWAP1 PUSH2 0xA95 JUMP JUMPDEST PUSH1 0x0 PUSH1 0x40 MLOAD DUP1 DUP4 SUB DUP2 DUP6 DUP8 GAS CALL SWAP3 POP POP POP RETURNDATASIZE DUP1 PUSH1 0x0 DUP2 EQ PUSH2 0x4A7 JUMPI PUSH1 0x40 MLOAD SWAP2 POP PUSH1 0x1F NOT PUSH1 0x3F RETURNDATASIZE ADD AND DUP3 ADD PUSH1 0x40 MSTORE RETURNDATASIZE DUP3 MSTORE RETURNDATASIZE PUSH1 0x0 PUSH1 0x20 DUP5 ADD RETURNDATACOPY PUSH2 0x4AC JUMP JUMPDEST PUSH1 0x60 SWAP2 POP JUMPDEST POP POP SWAP1 POP DUP1 PUSH2 0x4F0 JUMPI PUSH1 0x40 MLOAD PUSH32 0x8C379A000000000000000000000000000000000000000000000000000000000 DUP2 MSTORE PUSH1 0x4 ADD PUSH2 0x4E7 SWAP1 PUSH2 0xAF6 JUMP JUMPDEST PUSH1 0x40 MLOAD DUP1 SWAP2 SUB SWAP1 REVERT JUMPDEST POP JUMP JUMPDEST PUSH1 0x1 PUSH1 0x20 MSTORE DUP1 PUSH1 0x0 MSTORE PUSH1 0x40 PUSH1 0x0 KECCAK256 PUSH1 0x0 SWAP2 POP SWAP1 POP SLOAD DUP2 JUMP JUMPDEST PUSH9 0x2B5E3AF16B1880000 DUP2 JUMP JUMPDEST PUSH32 0x0 DUP2 JUMP JUMPDEST PUSH1 0x0 DUP2 DUP2 SLOAD DUP2 LT PUSH2 0x54C JUMPI PUSH1 0x0 DUP1 REVERT JUMPDEST SWAP1 PUSH1 0x0 MSTORE PUSH1 0x20 PUSH1 0x0 KECCAK256 ADD PUSH1 0x0 SWAP2 POP SLOAD SWAP1 PUSH2 0x100 EXP SWAP1 DIV PUSH20 0xFFFFFFFFFFFFFFFFFFFFFFFFFFFFFFFFFFFFFFFF AND DUP2 JUMP JUMPDEST PUSH1 0x0 DUP1 PUSH2 0x586 PUSH2 0x5B5 JUMP JUMPDEST SWAP1 POP PUSH1 0x0 PUSH8 0xDE0B6B3A7640000 DUP5 DUP4 PUSH2 0x59F SWAP2 SWAP1 PUSH2 0xB16 JUMP JUMPDEST PUSH2 0x5A9 SWAP2 SWAP1 PUSH2 0xB87 JUMP JUMPDEST SWAP1 POP DUP1 SWAP3 POP POP POP SWAP2 SWAP1 POP JUMP JUMPDEST PUSH1 0x0 DUP1 PUSH20 0x694AA1769357215DE4FAC081BF1F309ADC325306 SWAP1 POP PUSH1 0x0 DUP2 PUSH20 0xFFFFFFFFFFFFFFFFFFFFFFFFFFFFFFFFFFFFFFFF AND PUSH4 0xFEAF968C PUSH1 0x40 MLOAD DUP2 PUSH4 0xFFFFFFFF AND PUSH1 0xE0 SHL DUP2 MSTORE PUSH1 0x4 ADD PUSH1 0xA0 PUSH1 0x40 MLOAD DUP1 DUP4 SUB DUP2 DUP7 GAS STATICCALL ISZERO DUP1 ISZERO PUSH2 0x61C JUMPI RETURNDATASIZE PUSH1 0x0 DUP1 RETURNDATACOPY RETURNDATASIZE PUSH1 0x0 REVERT JUMPDEST POP POP POP POP PUSH1 0x40 MLOAD RETURNDATASIZE PUSH1 0x1F NOT PUSH1 0x1F DUP3 ADD AND DUP3 ADD DUP1 PUSH1 0x40 MSTORE POP DUP2 ADD SWAP1 PUSH2 0x640 SWAP2 SWAP1 PUSH2 0xC45 JUMP JUMPDEST POP POP POP SWAP2 POP POP PUSH5 0x2540BE400 DUP2 PUSH2 0x657 SWAP2 SWAP1 PUSH2 0xCC0 JUMP JUMPDEST SWAP3 POP POP POP SWAP1 JUMP JUMPDEST DUP3 DUP1 SLOAD DUP3 DUP3 SSTORE SWAP1 PUSH1 0x0 MSTORE PUSH1 0x20 PUSH1 0x0 KECCAK256 SWAP1 DUP2 ADD SWAP3 DUP3 ISZERO PUSH2 0x6D7 JUMPI SWAP2 PUSH1 0x20 MUL DUP3 ADD JUMPDEST DUP3 DUP2 GT ISZERO PUSH2 0x6D6 JUMPI DUP3 MLOAD DUP3 PUSH1 0x0 PUSH2 0x100 EXP DUP2 SLOAD DUP2 PUSH20 0xFFFFFFFFFFFFFFFFFFFFFFFFFFFFFFFFFFFFFFFF MUL NOT AND SWAP1 DUP4 PUSH20 0xFFFFFFFFFFFFFFFFFFFFFFFFFFFFFFFFFFFFFFFF AND MUL OR SWAP1 SSTORE POP SWAP2 PUSH1 0x20 ADD SWAP2 SWAP1 PUSH1 0x1 ADD SWAP1 PUSH2 0x67E JUMP JUMPDEST JUMPDEST POP SWAP1 POP PUSH2 0x6E4 SWAP2 SWAP1 PUSH2 0x6E8 JUMP JUMPDEST POP SWAP1 JUMP JUMPDEST JUMPDEST DUP1 DUP3 GT ISZERO PUSH2 0x701 JUMPI PUSH1 0x0 DUP2 PUSH1 0x0 SWAP1 SSTORE POP PUSH1 0x1 ADD PUSH2 0x6E9 JUMP JUMPDEST POP SWAP1 JUMP JUMPDEST PUSH1 0x0 DUP1 REVERT JUMPDEST PUSH1 0x0 PUSH20 0xFFFFFFFFFFFFFFFFFFFFFFFFFFFFFFFFFFFFFFFF DUP3 AND SWAP1 POP SWAP2 SWAP1 POP JUMP JUMPDEST PUSH1 0x0 PUSH2 0x735 DUP3 PUSH2 0x70A JUMP JUMPDEST SWAP1 POP SWAP2 SWAP1 POP JUMP JUMPDEST PUSH2 0x745 DUP2 PUSH2 0x72A JUMP JUMPDEST DUP2 EQ PUSH2 0x750 JUMPI PUSH1 0x0 DUP1 REVERT JUMPDEST POP JUMP JUMPDEST PUSH1 0x0 DUP2 CALLDATALOAD SWAP1 POP PUSH2 0x762 DUP2 PUSH2 0x73C JUMP JUMPDEST SWAP3 SWAP2 POP POP JUMP JUMPDEST PUSH1 0x0 PUSH1 0x20 DUP3 DUP5 SUB SLT ISZERO PUSH2 0x77E JUMPI PUSH2 0x77D PUSH2 0x705 JUMP JUMPDEST JUMPDEST PUSH1 0x0 PUSH2 0x78C DUP5 DUP3 DUP6 ADD PUSH2 0x753 JUMP JUMPDEST SWAP2 POP POP SWAP3 SWAP2 POP POP JUMP JUMPDEST PUSH1 0x0 DUP2 SWAP1 POP SWAP2 SWAP1 POP JUMP JUMPDEST PUSH2 0x7A8 DUP2 PUSH2 0x795 JUMP JUMPDEST DUP3 MSTORE POP POP JUMP JUMPDEST PUSH1 0x0 PUSH1 0x20 DUP3 ADD SWAP1 POP PUSH2 0x7C3 PUSH1 0x0 DUP4 ADD DUP5 PUSH2 0x79F JUMP JUMPDEST SWAP3 SWAP2 POP POP JUMP JUMPDEST PUSH2 0x7D2 DUP2 PUSH2 0x72A JUMP JUMPDEST DUP3 MSTORE POP POP JUMP JUMPDEST PUSH1 0x0 PUSH1 0x20 DUP3 ADD SWAP1 POP PUSH2 0x7ED PUSH1 0x0 DUP4 ADD DUP5 PUSH2 0x7C9 JUMP JUMPDEST SWAP3 SWAP2 POP POP JUMP JUMPDEST PUSH2 0x7FC DUP2 PUSH2 0x795 JUMP JUMPDEST DUP2 EQ PUSH2 0x807 JUMPI PUSH1 0x0 DUP1 REVERT JUMPDEST POP JUMP JUMPDEST PUSH1 0x0 DUP2 CALLDATALOAD SWAP1 POP PUSH2 0x819 DUP2 PUSH2 0x7F3 JUMP JUMPDEST SWAP3 SWAP2 POP POP JUMP JUMPDEST PUSH1 0x0 PUSH1 0x20 DUP3 DUP5 SUB SLT ISZERO PUSH2 0x835 JUMPI PUSH2 0x834 PUSH2 0x705 JUMP JUMPDEST JUMPDEST PUSH1 0x0 PUSH2 0x843 DUP5 DUP3 DUP6 ADD PUSH2 0x80A JUMP JUMPDEST SWAP2 POP POP SWAP3 SWAP2 POP POP JUMP JUMPDEST PUSH1 0x0 DUP3 DUP3 MSTORE PUSH1 0x20 DUP3 ADD SWAP1 POP SWAP3 SWAP2 POP POP JUMP JUMPDEST PUSH32 0x596F7520646964206E6F742073656E6420656E6F756768204554480000000000 PUSH1 0x0 DUP3 ADD MSTORE POP JUMP JUMPDEST PUSH1 0x0 PUSH2 0x893 PUSH1 0x1B DUP4 PUSH2 0x84C JUMP JUMPDEST SWAP2 POP PUSH2 0x89E DUP3 PUSH2 0x85D JUMP JUMPDEST PUSH1 0x20 DUP3 ADD SWAP1 POP SWAP2 SWAP1 POP JUMP JUMPDEST PUSH1 0x0 PUSH1 0x20 DUP3 ADD SWAP1 POP DUP2 DUP2 SUB PUSH1 0x0 DUP4 ADD MSTORE PUSH2 0x8C2 DUP2 PUSH2 0x886 JUMP JUMPDEST SWAP1 POP SWAP2 SWAP1 POP JUMP JUMPDEST PUSH32 0x4E487B7100000000000000000000000000000000000000000000000000000000 PUSH1 0x0 MSTORE PUSH1 0x11 PUSH1 0x4 MSTORE PUSH1 0x24 PUSH1 0x0 REVERT JUMPDEST PUSH1 0x0 PUSH2 0x903 DUP3 PUSH2 0x795 JUMP JUMPDEST SWAP2 POP PUSH2 0x90E DUP4 PUSH2 0x795 JUMP JUMPDEST SWAP3 POP DUP3 DUP3 ADD SWAP1 POP DUP1 DUP3 GT ISZERO PUSH2 0x926 JUMPI PUSH2 0x925 PUSH2 0x8C9 JUMP JUMPDEST JUMPDEST SWAP3 SWAP2 POP POP JUMP JUMPDEST PUSH32 0x596F7520617265206E6F7420746865206F776E6572206F66207468697320636F PUSH1 0x0 DUP3 ADD MSTORE PUSH32 0x6E74726163740000000000000000000000000000000000000000000000000000 PUSH1 0x20 DUP3 ADD MSTORE POP JUMP JUMPDEST PUSH1 0x0 PUSH2 0x988 PUSH1 0x26 DUP4 PUSH2 0x84C JUMP JUMPDEST SWAP2 POP PUSH2 0x993 DUP3 PUSH2 0x92C JUMP JUMPDEST PUSH1 0x40 DUP3 ADD SWAP1 POP SWAP2 SWAP1 POP JUMP JUMPDEST PUSH1 0x0 PUSH1 0x20 DUP3 ADD SWAP1 POP DUP2 DUP2 SUB PUSH1 0x0 DUP4 ADD MSTORE PUSH2 0x9B7 DUP2 PUSH2 0x97B JUMP JUMPDEST SWAP1 POP SWAP2 SWAP1 POP JUMP JUMPDEST PUSH32 0x4E487B7100000000000000000000000000000000000000000000000000000000 PUSH1 0x0 MSTORE PUSH1 0x32 PUSH1 0x4 MSTORE PUSH1 0x24 PUSH1 0x0 REVERT JUMPDEST PUSH1 0x0 PUSH2 0x9F8 DUP3 PUSH2 0x795 JUMP JUMPDEST SWAP2 POP PUSH32 0xFFFFFFFFFFFFFFFFFFFFFFFFFFFFFFFFFFFFFFFFFFFFFFFFFFFFFFFFFFFFFFFF DUP3 SUB PUSH2 0xA2A JUMPI PUSH2 0xA29 PUSH2 0x8C9 JUMP JUMPDEST JUMPDEST PUSH1 0x1 DUP3 ADD SWAP1 POP SWAP2 SWAP1 POP JUMP JUMPDEST PUSH32 0x4E487B7100000000000000000000000000000000000000000000000000000000 PUSH1 0x0 MSTORE PUSH1 0x41 PUSH1 0x4 MSTORE PUSH1 0x24 PUSH1 0x0 REVERT JUMPDEST PUSH1 0x0 DUP2 SWAP1 POP SWAP3 SWAP2 POP POP JUMP JUMPDEST POP JUMP JUMPDEST PUSH1 0x0 PUSH2 0xA7F PUSH1 0x0 DUP4 PUSH2 0xA64 JUMP JUMPDEST SWAP2 POP PUSH2 0xA8A DUP3 PUSH2 0xA6F JUMP JUMPDEST PUSH1 0x0 DUP3 ADD SWAP1 POP SWAP2 SWAP1 POP JUMP JUMPDEST PUSH1 0x0 PUSH2 0xAA0 DUP3 PUSH2 0xA72 JUMP JUMPDEST SWAP2 POP DUP2 SWAP1 POP SWAP2 SWAP1 POP JUMP JUMPDEST PUSH32 0x43616C6C206661696C6564000000000000000000000000000000000000000000 PUSH1 0x0 DUP3 ADD MSTORE POP JUMP JUMPDEST PUSH1 0x0 PUSH2 0xAE0 PUSH1 0xB DUP4 PUSH2 0x84C JUMP JUMPDEST SWAP2 POP PUSH2 0xAEB DUP3 PUSH2 0xAAA JUMP JUMPDEST PUSH1 0x20 DUP3 ADD SWAP1 POP SWAP2 SWAP1 POP JUMP JUMPDEST PUSH1 0x0 PUSH1 0x20 DUP3 ADD SWAP1 POP DUP2 DUP2 SUB PUSH1 0x0 DUP4 ADD MSTORE PUSH2 0xB0F DUP2 PUSH2 0xAD3 JUMP JUMPDEST SWAP1 POP SWAP2 SWAP1 POP JUMP JUMPDEST PUSH1 0x0 PUSH2 0xB21 DUP3 PUSH2 0x795 JUMP JUMPDEST SWAP2 POP PUSH2 0xB2C DUP4 PUSH2 0x795 JUMP JUMPDEST SWAP3 POP DUP3 DUP3 MUL PUSH2 0xB3A DUP2 PUSH2 0x795 JUMP JUMPDEST SWAP2 POP DUP3 DUP3 DIV DUP5 EQ DUP4 ISZERO OR PUSH2 0xB51 JUMPI PUSH2 0xB50 PUSH2 0x8C9 JUMP JUMPDEST JUMPDEST POP SWAP3 SWAP2 POP POP JUMP JUMPDEST PUSH32 0x4E487B7100000000000000000000000000000000000000000000000000000000 PUSH1 0x0 MSTORE PUSH1 0x12 PUSH1 0x4 MSTORE PUSH1 0x24 PUSH1 0x0 REVERT JUMPDEST PUSH1 0x0 PUSH2 0xB92 DUP3 PUSH2 0x795 JUMP JUMPDEST SWAP2 POP PUSH2 0xB9D DUP4 PUSH2 0x795 JUMP JUMPDEST SWAP3 POP DUP3 PUSH2 0xBAD JUMPI PUSH2 0xBAC PUSH2 0xB58 JUMP JUMPDEST JUMPDEST DUP3 DUP3 DIV SWAP1 POP SWAP3 SWAP2 POP POP JUMP JUMPDEST PUSH1 0x0 PUSH10 0xFFFFFFFFFFFFFFFFFFFF DUP3 AND SWAP1 POP SWAP2 SWAP1 POP JUMP JUMPDEST PUSH2 0xBD7 DUP2 PUSH2 0xBB8 JUMP JUMPDEST DUP2 EQ PUSH2 0xBE2 JUMPI PUSH1 0x0 DUP1 REVERT JUMPDEST POP JUMP JUMPDEST PUSH1 0x0 DUP2 MLOAD SWAP1 POP PUSH2 0xBF4 DUP2 PUSH2 0xBCE JUMP JUMPDEST SWAP3 SWAP2 POP POP JUMP JUMPDEST PUSH1 0x0 DUP2 SWAP1 POP SWAP2 SWAP1 POP JUMP JUMPDEST PUSH2 0xC0D DUP2 PUSH2 0xBFA JUMP JUMPDEST DUP2 EQ PUSH2 0xC18 JUMPI PUSH1 0x0 DUP1 REVERT JUMPDEST POP JUMP JUMPDEST PUSH1 0x0 DUP2 MLOAD SWAP1 POP PUSH2 0xC2A DUP2 PUSH2 0xC04 JUMP JUMPDEST SWAP3 SWAP2 POP POP JUMP JUMPDEST PUSH1 0x0 DUP2 MLOAD SWAP1 POP PUSH2 0xC3F DUP2 PUSH2 0x7F3 JUMP JUMPDEST SWAP3 SWAP2 POP POP JUMP JUMPDEST PUSH1 0x0 DUP1 PUSH1 0x0 DUP1 PUSH1 0x0 PUSH1 0xA0 DUP7 DUP9 SUB SLT ISZERO PUSH2 0xC61 JUMPI PUSH2 0xC60 PUSH2 0x705 JUMP JUMPDEST JUMPDEST PUSH1 0x0 PUSH2 0xC6F DUP9 DUP3 DUP10 ADD PUSH2 0xBE5 JUMP JUMPDEST SWAP6 POP POP PUSH1 0x20 PUSH2 0xC80 DUP9 DUP3 DUP10 ADD PUSH2 0xC1B JUMP JUMPDEST SWAP5 POP POP PUSH1 0x40 PUSH2 0xC91 DUP9 DUP3 DUP10 ADD PUSH2 0xC30 JUMP JUMPDEST SWAP4 POP POP PUSH1 0x60 PUSH2 0xCA2 DUP9 DUP3 DUP10 ADD PUSH2 0xC30 JUMP JUMPDEST SWAP3 POP POP PUSH1 0x80 PUSH2 0xCB3 DUP9 DUP3 DUP10 ADD PUSH2 0xBE5 JUMP JUMPDEST SWAP2 POP POP SWAP3 SWAP6 POP SWAP3 SWAP6 SWAP1 SWAP4 POP JUMP JUMPDEST PUSH1 0x0 PUSH2 0xCCB DUP3 PUSH2 0xBFA JUMP JUMPDEST SWAP2 POP PUSH2 0xCD6 DUP4 PUSH2 0xBFA JUMP JUMPDEST SWAP3 POP DUP3 DUP3 MUL PUSH2 0xCE4 DUP2 PUSH2 0xBFA JUMP JUMPDEST SWAP2 POP PUSH32 0x8000000000000000000000000000000000000000000000000000000000000000 DUP5 EQ PUSH1 0x0 DUP5 SLT AND ISZERO PUSH2 0xD1C JUMPI PUSH2 0xD1B PUSH2 0x8C9 JUMP JUMPDEST JUMPDEST DUP3 DUP3 SDIV DUP5 EQ DUP4 ISZERO OR PUSH2 0xD31 JUMPI PUSH2 0xD30 PUSH2 0x8C9 JUMP JUMPDEST JUMPDEST POP SWAP3 SWAP2 POP POP JUMP INVALID LOG2 PUSH5 0x6970667358 0x22 SLT KECCAK256 PUSH7 0xFCB4FF07FAB0F6 0xB4 CALLCODE 0xB0 MSTORE 0xCD 0xBF PUSH1 0xC2 0xCB 0xAB DUP15 CALL SELFDESTRUCT 0xC5 0x23 0xBC BALANCE SWAP16 JUMPDEST POP 0xB1 PUSH7 0x13C264736F6C63 NUMBER STOP ADDMOD SLT STOP CALLER "
				},
				"gasEstimates": {
					"creation": {
						"codeDepositCost": "687600",
						"executionCost": "infinite",
						"totalCost": "infinite"
					},
					"external": {
						"": "infinite",
						"MINIMUM_USD()": "351",
						"addressToAmountFunded(address)": "2814",
						"fund()": "infinite",
						"funders(uint256)": "5044",
						"i_owner()": "infinite",
						"withdraw()": "infinite"
					}
				},
				"methodIdentifiers": {
					"MINIMUM_USD()": "6b69a592",
					"addressToAmountFunded(address)": "3e47d6f3",
					"fund()": "b60d4288",
					"funders(uint256)": "dc0d3dff",
					"i_owner()": "dba6335f",
					"withdraw()": "3ccfd60b"
				}
			},
			"storageLayout": {
				"storage": [
					{
						"astId": 62,
						"contract": "contract/FundMe.sol:FundMe",
						"label": "funders",
						"offset": 0,
						"slot": "0",
						"type": "t_array(t_address)dyn_storage"
					},
					{
						"astId": 66,
						"contract": "contract/FundMe.sol:FundMe",
						"label": "addressToAmountFunded",
						"offset": 0,
						"slot": "1",
						"type": "t_mapping(t_address,t_uint256)"
					}
				],
				"types": {
					"t_address": {
						"encoding": "inplace",
						"label": "address",
						"numberOfBytes": "20"
					},
					"t_array(t_address)dyn_storage": {
						"base": "t_address",
						"encoding": "dynamic_array",
						"label": "address[]",
						"numberOfBytes": "32"
					},
					"t_mapping(t_address,t_uint256)": {
						"encoding": "mapping",
						"key": "t_address",
						"label": "mapping(address => uint256)",
						"numberOfBytes": "32",
						"value": "t_uint256"
					},
					"t_uint256": {
						"encoding": "inplace",
						"label": "uint256",
						"numberOfBytes": "32"
					}
				}
			},
			"userdoc": {
				"kind": "user",
				"methods": {},
				"version": 1
			}
		}
	}
}